{
  "_format": "hh-sol-artifact-1",
  "contractName": "ScorpyNFT",
  "sourceName": "contracts/ScorpyNFT.sol",
  "abi": [
    {
      "inputs": [],
      "stateMutability": "nonpayable",
      "type": "constructor"
    },
    {
      "anonymous": false,
      "inputs": [
        {
          "indexed": true,
          "internalType": "address",
          "name": "owner",
          "type": "address"
        },
        {
          "indexed": true,
          "internalType": "address",
          "name": "approved",
          "type": "address"
        },
        {
          "indexed": true,
          "internalType": "uint256",
          "name": "tokenId",
          "type": "uint256"
        }
      ],
      "name": "Approval",
      "type": "event"
    },
    {
      "anonymous": false,
      "inputs": [
        {
          "indexed": true,
          "internalType": "address",
          "name": "owner",
          "type": "address"
        },
        {
          "indexed": true,
          "internalType": "address",
          "name": "operator",
          "type": "address"
        },
        {
          "indexed": false,
          "internalType": "bool",
          "name": "approved",
          "type": "bool"
        }
      ],
      "name": "ApprovalForAll",
      "type": "event"
    },
    {
      "anonymous": false,
      "inputs": [
        {
          "indexed": true,
          "internalType": "address",
          "name": "from",
          "type": "address"
        },
        {
          "indexed": true,
          "internalType": "address",
          "name": "to",
          "type": "address"
        },
        {
          "indexed": true,
          "internalType": "uint256",
          "name": "tokenId",
          "type": "uint256"
        }
      ],
      "name": "Transfer",
      "type": "event"
    },
    {
      "inputs": [
        {
          "internalType": "address",
          "name": "to",
          "type": "address"
        },
        {
          "internalType": "uint256",
          "name": "tokenId",
          "type": "uint256"
        }
      ],
      "name": "approve",
      "outputs": [],
      "stateMutability": "nonpayable",
      "type": "function"
    },
    {
      "inputs": [
        {
          "internalType": "address",
          "name": "owner",
          "type": "address"
        }
      ],
      "name": "balanceOf",
      "outputs": [
        {
          "internalType": "uint256",
          "name": "",
          "type": "uint256"
        }
      ],
      "stateMutability": "view",
      "type": "function"
    },
    {
      "inputs": [
        {
          "internalType": "uint256",
          "name": "tokenId",
          "type": "uint256"
        }
      ],
      "name": "getApproved",
      "outputs": [
        {
          "internalType": "address",
          "name": "",
          "type": "address"
        }
      ],
      "stateMutability": "view",
      "type": "function"
    },
    {
      "inputs": [
        {
          "internalType": "address",
          "name": "owner",
          "type": "address"
        },
        {
          "internalType": "address",
          "name": "operator",
          "type": "address"
        }
      ],
      "name": "isApprovedForAll",
      "outputs": [
        {
          "internalType": "bool",
          "name": "",
          "type": "bool"
        }
      ],
      "stateMutability": "view",
      "type": "function"
    },
    {
      "inputs": [],
      "name": "makeNFT",
      "outputs": [],
      "stateMutability": "nonpayable",
      "type": "function"
    },
    {
      "inputs": [],
      "name": "name",
      "outputs": [
        {
          "internalType": "string",
          "name": "",
          "type": "string"
        }
      ],
      "stateMutability": "view",
      "type": "function"
    },
    {
      "inputs": [
        {
          "internalType": "uint256",
          "name": "tokenId",
          "type": "uint256"
        }
      ],
      "name": "ownerOf",
      "outputs": [
        {
          "internalType": "address",
          "name": "",
          "type": "address"
        }
      ],
      "stateMutability": "view",
      "type": "function"
    },
    {
      "inputs": [
        {
          "internalType": "uint256",
          "name": "tokenId",
          "type": "uint256"
        }
      ],
      "name": "pickRandomFirstWord",
      "outputs": [
        {
          "internalType": "string",
          "name": "",
          "type": "string"
        }
      ],
      "stateMutability": "view",
      "type": "function"
    },
    {
      "inputs": [
        {
          "internalType": "uint256",
          "name": "tokenId",
          "type": "uint256"
        }
      ],
      "name": "pickRandomSecondWord",
      "outputs": [
        {
          "internalType": "string",
          "name": "",
          "type": "string"
        }
      ],
      "stateMutability": "view",
      "type": "function"
    },
    {
      "inputs": [
        {
          "internalType": "uint256",
          "name": "tokenId",
          "type": "uint256"
        }
      ],
      "name": "pickRandomThirdWord",
      "outputs": [
        {
          "internalType": "string",
          "name": "",
          "type": "string"
        }
      ],
      "stateMutability": "view",
      "type": "function"
    },
    {
      "inputs": [
        {
          "internalType": "address",
          "name": "from",
          "type": "address"
        },
        {
          "internalType": "address",
          "name": "to",
          "type": "address"
        },
        {
          "internalType": "uint256",
          "name": "tokenId",
          "type": "uint256"
        }
      ],
      "name": "safeTransferFrom",
      "outputs": [],
      "stateMutability": "nonpayable",
      "type": "function"
    },
    {
      "inputs": [
        {
          "internalType": "address",
          "name": "from",
          "type": "address"
        },
        {
          "internalType": "address",
          "name": "to",
          "type": "address"
        },
        {
          "internalType": "uint256",
          "name": "tokenId",
          "type": "uint256"
        },
        {
          "internalType": "bytes",
          "name": "_data",
          "type": "bytes"
        }
      ],
      "name": "safeTransferFrom",
      "outputs": [],
      "stateMutability": "nonpayable",
      "type": "function"
    },
    {
      "inputs": [
        {
          "internalType": "address",
          "name": "operator",
          "type": "address"
        },
        {
          "internalType": "bool",
          "name": "approved",
          "type": "bool"
        }
      ],
      "name": "setApprovalForAll",
      "outputs": [],
      "stateMutability": "nonpayable",
      "type": "function"
    },
    {
      "inputs": [
        {
          "internalType": "bytes4",
          "name": "interfaceId",
          "type": "bytes4"
        }
      ],
      "name": "supportsInterface",
      "outputs": [
        {
          "internalType": "bool",
          "name": "",
          "type": "bool"
        }
      ],
      "stateMutability": "view",
      "type": "function"
    },
    {
      "inputs": [],
      "name": "symbol",
      "outputs": [
        {
          "internalType": "string",
          "name": "",
          "type": "string"
        }
      ],
      "stateMutability": "view",
      "type": "function"
    },
    {
      "inputs": [
        {
          "internalType": "uint256",
          "name": "tokenId",
          "type": "uint256"
        }
      ],
      "name": "tokenURI",
      "outputs": [
        {
          "internalType": "string",
          "name": "",
          "type": "string"
        }
      ],
      "stateMutability": "view",
      "type": "function"
    },
    {
      "inputs": [
        {
          "internalType": "address",
          "name": "from",
          "type": "address"
        },
        {
          "internalType": "address",
          "name": "to",
          "type": "address"
        },
        {
          "internalType": "uint256",
          "name": "tokenId",
          "type": "uint256"
        }
      ],
      "name": "transferFrom",
      "outputs": [],
      "stateMutability": "nonpayable",
      "type": "function"
    }
  ],
  "bytecode": "0x6080604052604051806108e001604052806108a88152602001620047866108a89139600890805190602001906200003892919062000cba565b50604051806101e001604052806040518060400160405280600881526020017f536c696768746c7900000000000000000000000000000000000000000000000081525081526020016040518060400160405280600781526020017f546f74616c6c790000000000000000000000000000000000000000000000000081525081526020016040518060400160405280600581526020017f527573747900000000000000000000000000000000000000000000000000000081525081526020016040518060400160405280600881526020017f536c696768746c7900000000000000000000000000000000000000000000000081525081526020016040518060400160405280600481526020017f566572790000000000000000000000000000000000000000000000000000000081525081526020016040518060400160405280600781526020017f546f74616c6c790000000000000000000000000000000000000000000000000081525081526020016040518060400160405280600481526020017f4d6567610000000000000000000000000000000000000000000000000000000081525081526020016040518060400160405280600581526020017f527573747900000000000000000000000000000000000000000000000000000081525081526020016040518060400160405280600881526020017f536c696768746c7900000000000000000000000000000000000000000000000081525081526020016040518060400160405280600481526020017f566572790000000000000000000000000000000000000000000000000000000081525081526020016040518060400160405280600581526020017f527573747900000000000000000000000000000000000000000000000000000081525081526020016040518060400160405280600581526020017f527573747900000000000000000000000000000000000000000000000000000081525081526020016040518060400160405280600581526020017f527573747900000000000000000000000000000000000000000000000000000081525081526020016040518060400160405280600581526020017f527573747900000000000000000000000000000000000000000000000000000081525081526020016040518060400160405280600581526020017f5275737479000000000000000000000000000000000000000000000000000000815250815250600990600f620003ca92919062000d4b565b50604051806101e001604052806040518060400160405280600681526020017f4e6f726d616c000000000000000000000000000000000000000000000000000081525081526020016040518060400160405280600681526020017f4e6f726d616c000000000000000000000000000000000000000000000000000081525081526020016040518060400160405280600681526020017f4e6f726d616c000000000000000000000000000000000000000000000000000081525081526020016040518060400160405280600681526020017f4e6f726d616c000000000000000000000000000000000000000000000000000081525081526020016040518060400160405280600681526020017f4e6f726d616c000000000000000000000000000000000000000000000000000081525081526020016040518060400160405280600481526020017f526172650000000000000000000000000000000000000000000000000000000081525081526020016040518060400160405280600481526020017f457069630000000000000000000000000000000000000000000000000000000081525081526020016040518060400160405280600481526020017f457069630000000000000000000000000000000000000000000000000000000081525081526020016040518060400160405280600681526020017f4e6f726d616c000000000000000000000000000000000000000000000000000081525081526020016040518060400160405280600681526020017f4e6f726d616c000000000000000000000000000000000000000000000000000081525081526020016040518060400160405280600481526020017f4e6963650000000000000000000000000000000000000000000000000000000081525081526020016040518060400160405280600481526020017f4e6963650000000000000000000000000000000000000000000000000000000081525081526020016040518060400160405280600481526020017f4e6963650000000000000000000000000000000000000000000000000000000081525081526020016040518060400160405280600481526020017f4e6963650000000000000000000000000000000000000000000000000000000081525081526020016040518060400160405280600681526020017f4e6f726d616c0000000000000000000000000000000000000000000000000000815250815250600a90600f6200075c92919062000d4b565b50604051806101e001604052806040518060400160405280600681526020017f53636f727079000000000000000000000000000000000000000000000000000081525081526020016040518060400160405280600681526020017f53636f727079000000000000000000000000000000000000000000000000000081525081526020016040518060400160405280600681526020017f53636f727079000000000000000000000000000000000000000000000000000081525081526020016040518060400160405280600681526020017f53636f727079000000000000000000000000000000000000000000000000000081525081526020016040518060400160405280600681526020017f53636f727079000000000000000000000000000000000000000000000000000081525081526020016040518060400160405280600681526020017f53636f727079000000000000000000000000000000000000000000000000000081525081526020016040518060400160405280600681526020017f53636f727079000000000000000000000000000000000000000000000000000081525081526020016040518060400160405280600681526020017f53636f727079000000000000000000000000000000000000000000000000000081525081526020016040518060400160405280600881526020017f53636f7270696f6e00000000000000000000000000000000000000000000000081525081526020016040518060400160405280600881526020017f53636f7270696f6e00000000000000000000000000000000000000000000000081525081526020016040518060400160405280600881526020017f53636f7270696f6e00000000000000000000000000000000000000000000000081525081526020016040518060400160405280600881526020017f53636f7270696f6e00000000000000000000000000000000000000000000000081525081526020016040518060400160405280600581526020017f534b696e6700000000000000000000000000000000000000000000000000000081525081526020016040518060400160405280600581526020017f534b696e6700000000000000000000000000000000000000000000000000000081525081526020016040518060400160405280600481526020017f53474f4400000000000000000000000000000000000000000000000000000000815250815250600b90600f62000aee92919062000d4b565b5034801562000afc57600080fd5b506040518060400160405280600981526020017f53636f7270794e465400000000000000000000000000000000000000000000008152506040518060400160405280600581526020017f5354494e47000000000000000000000000000000000000000000000000000000815250816000908051906020019062000b8192919062000cba565b50806001908051906020019062000b9a92919062000cba565b50505062000be86040518060400160405280602081526020017f48697373732e2e2e2048697373732e2e2e20496d6d61205374696e6720796f7581525062000bee60201b620011f01760201c565b62000f6c565b62000c8e8160405160240162000c05919062000e80565b6040516020818303038152906040527f41304fac000000000000000000000000000000000000000000000000000000007bffffffffffffffffffffffffffffffffffffffffffffffffffffffff19166020820180517bffffffffffffffffffffffffffffffffffffffffffffffffffffffff838183161783525050505062000c9160201b60201c565b50565b60008151905060006a636f6e736f6c652e6c6f679050602083016000808483855afa5050505050565b82805462000cc89062000ef6565b90600052602060002090601f01602090048101928262000cec576000855562000d38565b82601f1062000d0757805160ff191683800117855562000d38565b8280016001018555821562000d38579182015b8281111562000d3757825182559160200191906001019062000d1a565b5b50905062000d47919062000db2565b5090565b82805482825590600052602060002090810192821562000d9f579160200282015b8281111562000d9e57825182908051906020019062000d8d92919062000cba565b509160200191906001019062000d6c565b5b50905062000dae919062000dd1565b5090565b5b8082111562000dcd57600081600090555060010162000db3565b5090565b5b8082111562000df5576000818162000deb919062000df9565b5060010162000dd2565b5090565b50805462000e079062000ef6565b6000825580601f1062000e1b575062000e3c565b601f01602090049060005260206000209081019062000e3b919062000db2565b5b50565b600062000e4c8262000ea4565b62000e58818562000eaf565b935062000e6a81856020860162000ec0565b62000e758162000f5b565b840191505092915050565b6000602082019050818103600083015262000e9c818462000e3f565b905092915050565b600081519050919050565b600082825260208201905092915050565b60005b8381101562000ee057808201518184015260208101905062000ec3565b8381111562000ef0576000848401525b50505050565b6000600282049050600182168062000f0f57607f821691505b6020821081141562000f265762000f2562000f2c565b5b50919050565b7f4e487b7100000000000000000000000000000000000000000000000000000000600052602260045260246000fd5b6000601f19601f8301169050919050565b61380a8062000f7c6000396000f3fe608060405234801561001057600080fd5b506004361061010b5760003560e01c806370a08231116100a2578063b187301f11610071578063b187301f146102b6578063b88d4fde146102e6578063c575757a14610302578063c87b56dd14610332578063e985e9c5146103625761010b565b806370a082311461024257806395d89b4114610272578063a22cb46514610290578063b036b4bd146102ac5761010b565b806323b872dd116100de57806323b872dd146101aa5780632de38d68146101c657806342842e0e146101f65780636352211e146102125761010b565b806301ffc9a71461011057806306fdde0314610140578063081812fc1461015e578063095ea7b31461018e575b600080fd5b61012a60048036038101906101259190612483565b610392565b604051610137919061307c565b60405180910390f35b610148610474565b6040516101559190613097565b60405180910390f35b610178600480360381019061017391906124d5565b610506565b6040516101859190613015565b60405180910390f35b6101a860048036038101906101a39190612447565b61058b565b005b6101c460048036038101906101bf9190612341565b6106a3565b005b6101e060048036038101906101db91906124d5565b610703565b6040516101ed9190613097565b60405180910390f35b610210600480360381019061020b9190612341565b610821565b005b61022c600480360381019061022791906124d5565b610841565b6040516102399190613015565b60405180910390f35b61025c600480360381019061025791906122dc565b6108f3565b60405161026991906132f7565b60405180910390f35b61027a6109ab565b6040516102879190613097565b60405180910390f35b6102aa60048036038101906102a5919061240b565b610a3d565b005b6102b4610bbe565b005b6102d060048036038101906102cb91906124d5565b610d6c565b6040516102dd9190613097565b60405180910390f35b61030060048036038101906102fb9190612390565b610e8a565b005b61031c600480360381019061031791906124d5565b610eec565b6040516103299190613097565b60405180910390f35b61034c600480360381019061034791906124d5565b61100a565b6040516103599190613097565b60405180910390f35b61037c60048036038101906103779190612305565b61115c565b604051610389919061307c565b60405180910390f35b60007f80ac58cd000000000000000000000000000000000000000000000000000000007bffffffffffffffffffffffffffffffffffffffffffffffffffffffff1916827bffffffffffffffffffffffffffffffffffffffffffffffffffffffff1916148061045d57507f5b5e139f000000000000000000000000000000000000000000000000000000007bffffffffffffffffffffffffffffffffffffffffffffffffffffffff1916827bffffffffffffffffffffffffffffffffffffffffffffffffffffffff1916145b8061046d575061046c82611289565b5b9050919050565b60606000805461048390613596565b80601f01602080910402602001604051908101604052809291908181526020018280546104af90613596565b80156104fc5780601f106104d1576101008083540402835291602001916104fc565b820191906000526020600020905b8154815290600101906020018083116104df57829003601f168201915b5050505050905090565b6000610511826112f3565b610550576040517f08c379a000000000000000000000000000000000000000000000000000000000815260040161054790613257565b60405180910390fd5b6004600083815260200190815260200160002060009054906101000a900473ffffffffffffffffffffffffffffffffffffffff169050919050565b600061059682610841565b90508073ffffffffffffffffffffffffffffffffffffffff168373ffffffffffffffffffffffffffffffffffffffff161415610607576040517f08c379a00000000000000000000000000000000000000000000000000000000081526004016105fe906132b7565b60405180910390fd5b8073ffffffffffffffffffffffffffffffffffffffff1661062661135f565b73ffffffffffffffffffffffffffffffffffffffff16148061065557506106548161064f61135f565b61115c565b5b610694576040517f08c379a000000000000000000000000000000000000000000000000000000000815260040161068b90613197565b60405180910390fd5b61069e8383611367565b505050565b6106b46106ae61135f565b82611420565b6106f3576040517f08c379a00000000000000000000000000000000000000000000000000000000081526004016106ea906132d7565b60405180910390fd5b6106fe8383836114fe565b505050565b606060006107376107138461175a565b6040516020016107239190612fd1565b604051602081830303815290604052611907565b90506009805490508161074a9190613611565b905060098181548110610786577f4e487b7100000000000000000000000000000000000000000000000000000000600052603260045260246000fd5b90600052602060002001805461079b90613596565b80601f01602080910402602001604051908101604052809291908181526020018280546107c790613596565b80156108145780601f106107e957610100808354040283529160200191610814565b820191906000526020600020905b8154815290600101906020018083116107f757829003601f168201915b5050505050915050919050565b61083c83838360405180602001604052806000815250610e8a565b505050565b6000806002600084815260200190815260200160002060009054906101000a900473ffffffffffffffffffffffffffffffffffffffff169050600073ffffffffffffffffffffffffffffffffffffffff168173ffffffffffffffffffffffffffffffffffffffff1614156108ea576040517f08c379a00000000000000000000000000000000000000000000000000000000081526004016108e1906131d7565b60405180910390fd5b80915050919050565b60008073ffffffffffffffffffffffffffffffffffffffff168273ffffffffffffffffffffffffffffffffffffffff161415610964576040517f08c379a000000000000000000000000000000000000000000000000000000000815260040161095b906131b7565b60405180910390fd5b600360008373ffffffffffffffffffffffffffffffffffffffff1673ffffffffffffffffffffffffffffffffffffffff168152602001908152602001600020549050919050565b6060600180546109ba90613596565b80601f01602080910402602001604051908101604052809291908181526020018280546109e690613596565b8015610a335780601f10610a0857610100808354040283529160200191610a33565b820191906000526020600020905b815481529060010190602001808311610a1657829003601f168201915b5050505050905090565b610a4561135f565b73ffffffffffffffffffffffffffffffffffffffff168273ffffffffffffffffffffffffffffffffffffffff161415610ab3576040517f08c379a0000000000000000000000000000000000000000000000000000000008152600401610aaa90613157565b60405180910390fd5b8060056000610ac061135f565b73ffffffffffffffffffffffffffffffffffffffff1673ffffffffffffffffffffffffffffffffffffffff16815260200190815260200160002060008473ffffffffffffffffffffffffffffffffffffffff1673ffffffffffffffffffffffffffffffffffffffff16815260200190815260200160002060006101000a81548160ff0219169083151502179055508173ffffffffffffffffffffffffffffffffffffffff16610b6d61135f565b73ffffffffffffffffffffffffffffffffffffffff167f17307eab39ab6107e8899845ad3d59bd9653f200f220920489ca2b5937696c3183604051610bb2919061307c565b60405180910390a35050565b6000610bca600761193a565b90506000610bd782610703565b90506000610be483610d6c565b90506000610bf184610eec565b90506000838383604051602001610c0a93929190612ee8565b60405160208183030381529060405290506000600882604051602001610c31929190612f19565b60405160208183030381529060405290506000610c7683610c5184611948565b604051602001610c62929190612f8c565b604051602081830303815290604052611948565b9050600081604051602001610c8b9190612ff3565b6040516020818303038152906040529050610cda6040518060400160405280601581526020017f0a2d2d2d2d2d2d2d2d2d2d2d2d2d2d2d2d2d2d2d2d00000000000000000000008152506111f0565b610ce3816111f0565b610d216040518060400160405280601581526020017f2d2d2d2d2d2d2d2d2d2d2d2d2d2d2d2d2d2d2d2d0a00000000000000000000008152506111f0565b610d2b3389611b06565b610d358882611b24565b610d586040518060600160405280602981526020016137ac602991398933611b98565b610d626007611c37565b5050505050505050565b60606000610da0610d7c8461175a565b604051602001610d8c9190612f6a565b604051602081830303815290604052611907565b9050600a8054905081610db39190613611565b9050600a8181548110610def577f4e487b7100000000000000000000000000000000000000000000000000000000600052603260045260246000fd5b906000526020600020018054610e0490613596565b80601f0160208091040260200160405190810160405280929190818152602001828054610e3090613596565b8015610e7d5780601f10610e5257610100808354040283529160200191610e7d565b820191906000526020600020905b815481529060010190602001808311610e6057829003601f168201915b5050505050915050919050565b610e9b610e9561135f565b83611420565b610eda576040517f08c379a0000000000000000000000000000000000000000000000000000000008152600401610ed1906132d7565b60405180910390fd5b610ee684848484611c4d565b50505050565b60606000610f20610efc8461175a565b604051602001610f0c9190612f48565b604051602081830303815290604052611907565b9050600b8054905081610f339190613611565b9050600b8181548110610f6f577f4e487b7100000000000000000000000000000000000000000000000000000000600052603260045260246000fd5b906000526020600020018054610f8490613596565b80601f0160208091040260200160405190810160405280929190818152602001828054610fb090613596565b8015610ffd5780601f10610fd257610100808354040283529160200191610ffd565b820191906000526020600020905b815481529060010190602001808311610fe057829003601f168201915b5050505050915050919050565b6060611015826112f3565b611054576040517f08c379a000000000000000000000000000000000000000000000000000000000815260040161104b90613237565b60405180910390fd5b600060066000848152602001908152602001600020805461107490613596565b80601f01602080910402602001604051908101604052809291908181526020018280546110a090613596565b80156110ed5780601f106110c2576101008083540402835291602001916110ed565b820191906000526020600020905b8154815290600101906020018083116110d057829003601f168201915b5050505050905060006110fe611ca9565b9050600081511415611114578192505050611157565b600082511115611149578082604051602001611131929190612ec4565b60405160208183030381529060405292505050611157565b61115284611cc0565b925050505b919050565b6000600560008473ffffffffffffffffffffffffffffffffffffffff1673ffffffffffffffffffffffffffffffffffffffff16815260200190815260200160002060008373ffffffffffffffffffffffffffffffffffffffff1673ffffffffffffffffffffffffffffffffffffffff16815260200190815260200160002060009054906101000a900460ff16905092915050565b611286816040516024016112049190613097565b6040516020818303038152906040527f41304fac000000000000000000000000000000000000000000000000000000007bffffffffffffffffffffffffffffffffffffffffffffffffffffffff19166020820180517bffffffffffffffffffffffffffffffffffffffffffffffffffffffff8381831617835250505050611d67565b50565b60007f01ffc9a7000000000000000000000000000000000000000000000000000000007bffffffffffffffffffffffffffffffffffffffffffffffffffffffff1916827bffffffffffffffffffffffffffffffffffffffffffffffffffffffff1916149050919050565b60008073ffffffffffffffffffffffffffffffffffffffff166002600084815260200190815260200160002060009054906101000a900473ffffffffffffffffffffffffffffffffffffffff1673ffffffffffffffffffffffffffffffffffffffff1614159050919050565b600033905090565b816004600083815260200190815260200160002060006101000a81548173ffffffffffffffffffffffffffffffffffffffff021916908373ffffffffffffffffffffffffffffffffffffffff160217905550808273ffffffffffffffffffffffffffffffffffffffff166113da83610841565b73ffffffffffffffffffffffffffffffffffffffff167f8c5be1e5ebec7d5bd14f71427d1e84f3dd0314c0f7b2291e5b200ac8c7c3b92560405160405180910390a45050565b600061142b826112f3565b61146a576040517f08c379a000000000000000000000000000000000000000000000000000000000815260040161146190613177565b60405180910390fd5b600061147583610841565b90508073ffffffffffffffffffffffffffffffffffffffff168473ffffffffffffffffffffffffffffffffffffffff1614806114e457508373ffffffffffffffffffffffffffffffffffffffff166114cc84610506565b73ffffffffffffffffffffffffffffffffffffffff16145b806114f557506114f4818561115c565b5b91505092915050565b8273ffffffffffffffffffffffffffffffffffffffff1661151e82610841565b73ffffffffffffffffffffffffffffffffffffffff1614611574576040517f08c379a000000000000000000000000000000000000000000000000000000000815260040161156b90613277565b60405180910390fd5b600073ffffffffffffffffffffffffffffffffffffffff168273ffffffffffffffffffffffffffffffffffffffff1614156115e4576040517f08c379a00000000000000000000000000000000000000000000000000000000081526004016115db90613137565b60405180910390fd5b6115ef838383611d90565b6115fa600082611367565b6001600360008573ffffffffffffffffffffffffffffffffffffffff1673ffffffffffffffffffffffffffffffffffffffff168152602001908152602001600020600082825461164a91906134ac565b925050819055506001600360008473ffffffffffffffffffffffffffffffffffffffff1673ffffffffffffffffffffffffffffffffffffffff16815260200190815260200160002060008282546116a191906133cb565b92505081905550816002600083815260200190815260200160002060006101000a81548173ffffffffffffffffffffffffffffffffffffffff021916908373ffffffffffffffffffffffffffffffffffffffff160217905550808273ffffffffffffffffffffffffffffffffffffffff168473ffffffffffffffffffffffffffffffffffffffff167fddf252ad1be2c89b69c2b068fc378daa952ba7f163c4a11628f55a4df523b3ef60405160405180910390a4505050565b606060008214156117a2576040518060400160405280600181526020017f30000000000000000000000000000000000000000000000000000000000000008152509050611902565b600082905060005b600082146117d45780806117bd906135c8565b915050600a826117cd9190613421565b91506117aa565b60008167ffffffffffffffff811115611816577f4e487b7100000000000000000000000000000000000000000000000000000000600052604160045260246000fd5b6040519080825280601f01601f1916602001820160405280156118485781602001600182028036833780820191505090505b5090505b600085146118fb5760018261186191906134ac565b9150600a856118709190613611565b603061187c91906133cb565b60f81b8183815181106118b8577f4e487b7100000000000000000000000000000000000000000000000000000000600052603260045260246000fd5b60200101907effffffffffffffffffffffffffffffffffffffffffffffffffffffffffffff1916908160001a905350600a856118f49190613421565b945061184c565b8093505050505b919050565b60008160405160200161191a9190612ead565b6040516020818303038152906040528051906020012060001c9050919050565b600081600001549050919050565b606060008251905060008114156119715760405180602001604052806000815250915050611b01565b6000600360028361198291906133cb565b61198c9190613421565b60046119989190613452565b905060006020826119a991906133cb565b67ffffffffffffffff8111156119e8577f4e487b7100000000000000000000000000000000000000000000000000000000600052604160045260246000fd5b6040519080825280601f01601f191660200182016040528015611a1a5781602001600182028036833780820191505090505b509050600060405180606001604052806040815260200161376c604091399050600181016020830160005b86811015611abe5760038101905062ffffff818a015116603f8160121c168401518060081b905060ff603f83600c1c1686015116810190508060081b905060ff603f8360061c1686015116810190508060081b905060ff603f831686015116810190508060e01b90508084526004840193505050611a45565b506003860660018114611ad85760028114611ae857611af3565b613d3d60f01b6002830352611af3565b603d60f81b60018303525b508484525050819450505050505b919050565b611b20828260405180602001604052806000815250611d95565b5050565b611b2d826112f3565b611b6c576040517f08c379a0000000000000000000000000000000000000000000000000000000008152600401611b63906131f7565b60405180910390fd5b80600660008481526020019081526020016000209080519060200190611b93929190612168565b505050565b611c32838383604051602401611bb0939291906130b9565b6040516020818303038152906040527fe3849f79000000000000000000000000000000000000000000000000000000007bffffffffffffffffffffffffffffffffffffffffffffffffffffffff19166020820180517bffffffffffffffffffffffffffffffffffffffffffffffffffffffff8381831617835250505050611d67565b505050565b6001816000016000828254019250508190555050565b611c588484846114fe565b611c6484848484611df0565b611ca3576040517f08c379a0000000000000000000000000000000000000000000000000000000008152600401611c9a906130f7565b60405180910390fd5b50505050565b606060405180602001604052806000815250905090565b6060611ccb826112f3565b611d0a576040517f08c379a0000000000000000000000000000000000000000000000000000000008152600401611d0190613297565b60405180910390fd5b6000611d14611ca9565b90506000815111611d345760405180602001604052806000815250611d5f565b80611d3e8461175a565b604051602001611d4f929190612ec4565b6040516020818303038152906040525b915050919050565b60008151905060006a636f6e736f6c652e6c6f679050602083016000808483855afa5050505050565b505050565b611d9f8383611f87565b611dac6000848484611df0565b611deb576040517f08c379a0000000000000000000000000000000000000000000000000000000008152600401611de2906130f7565b60405180910390fd5b505050565b6000611e118473ffffffffffffffffffffffffffffffffffffffff16612155565b15611f7a578373ffffffffffffffffffffffffffffffffffffffff1663150b7a02611e3a61135f565b8786866040518563ffffffff1660e01b8152600401611e5c9493929190613030565b602060405180830381600087803b158015611e7657600080fd5b505af1925050508015611ea757506040513d601f19601f82011682018060405250810190611ea491906124ac565b60015b611f2a573d8060008114611ed7576040519150601f19603f3d011682016040523d82523d6000602084013e611edc565b606091505b50600081511415611f22576040517f08c379a0000000000000000000000000000000000000000000000000000000008152600401611f19906130f7565b60405180910390fd5b805181602001fd5b63150b7a0260e01b7bffffffffffffffffffffffffffffffffffffffffffffffffffffffff1916817bffffffffffffffffffffffffffffffffffffffffffffffffffffffff191614915050611f7f565b600190505b949350505050565b600073ffffffffffffffffffffffffffffffffffffffff168273ffffffffffffffffffffffffffffffffffffffff161415611ff7576040517f08c379a0000000000000000000000000000000000000000000000000000000008152600401611fee90613217565b60405180910390fd5b612000816112f3565b15612040576040517f08c379a000000000000000000000000000000000000000000000000000000000815260040161203790613117565b60405180910390fd5b61204c60008383611d90565b6001600360008473ffffffffffffffffffffffffffffffffffffffff1673ffffffffffffffffffffffffffffffffffffffff168152602001908152602001600020600082825461209c91906133cb565b92505081905550816002600083815260200190815260200160002060006101000a81548173ffffffffffffffffffffffffffffffffffffffff021916908373ffffffffffffffffffffffffffffffffffffffff160217905550808273ffffffffffffffffffffffffffffffffffffffff16600073ffffffffffffffffffffffffffffffffffffffff167fddf252ad1be2c89b69c2b068fc378daa952ba7f163c4a11628f55a4df523b3ef60405160405180910390a45050565b600080823b905060008111915050919050565b82805461217490613596565b90600052602060002090601f01602090048101928261219657600085556121dd565b82601f106121af57805160ff19168380011785556121dd565b828001600101855582156121dd579182015b828111156121dc5782518255916020019190600101906121c1565b5b5090506121ea91906121ee565b5090565b5b808211156122075760008160009055506001016121ef565b5090565b600061221e61221984613343565b613312565b90508281526020810184848401111561223657600080fd5b612241848285613554565b509392505050565b6000813590506122588161370f565b92915050565b60008135905061226d81613726565b92915050565b6000813590506122828161373d565b92915050565b6000815190506122978161373d565b92915050565b600082601f8301126122ae57600080fd5b81356122be84826020860161220b565b91505092915050565b6000813590506122d681613754565b92915050565b6000602082840312156122ee57600080fd5b60006122fc84828501612249565b91505092915050565b6000806040838503121561231857600080fd5b600061232685828601612249565b925050602061233785828601612249565b9150509250929050565b60008060006060848603121561235657600080fd5b600061236486828701612249565b935050602061237586828701612249565b9250506040612386868287016122c7565b9150509250925092565b600080600080608085870312156123a657600080fd5b60006123b487828801612249565b94505060206123c587828801612249565b93505060406123d6878288016122c7565b925050606085013567ffffffffffffffff8111156123f357600080fd5b6123ff8782880161229d565b91505092959194509250565b6000806040838503121561241e57600080fd5b600061242c85828601612249565b925050602061243d8582860161225e565b9150509250929050565b6000806040838503121561245a57600080fd5b600061246885828601612249565b9250506020612479858286016122c7565b9150509250929050565b60006020828403121561249557600080fd5b60006124a384828501612273565b91505092915050565b6000602082840312156124be57600080fd5b60006124cc84828501612288565b91505092915050565b6000602082840312156124e757600080fd5b60006124f5848285016122c7565b91505092915050565b612507816134e0565b82525050565b612516816134f2565b82525050565b600061252782613388565b612531818561339e565b9350612541818560208601613563565b61254a816136fe565b840191505092915050565b600061256082613393565b61256a81856133af565b935061257a818560208601613563565b612583816136fe565b840191505092915050565b600061259982613393565b6125a381856133c0565b93506125b3818560208601613563565b80840191505092915050565b600081546125cc81613596565b6125d681866133c0565b945060018216600081146125f1576001811461260257612635565b60ff19831686528186019350612635565b61260b85613373565b60005b8381101561262d5781548189015260018201915060208101905061260e565b838801955050505b50505092915050565b600061264b6032836133af565b91507f4552433732313a207472616e7366657220746f206e6f6e20455243373231526560008301527f63656976657220696d706c656d656e74657200000000000000000000000000006020830152604082019050919050565b60006126b1601c836133af565b91507f4552433732313a20746f6b656e20616c7265616479206d696e746564000000006000830152602082019050919050565b60006126f1600a836133c0565b91507f54484952445f574f5244000000000000000000000000000000000000000000006000830152600a82019050919050565b60006127316024836133af565b91507f4552433732313a207472616e7366657220746f20746865207a65726f2061646460008301527f72657373000000000000000000000000000000000000000000000000000000006020830152604082019050919050565b60006127976019836133af565b91507f4552433732313a20617070726f766520746f2063616c6c6572000000000000006000830152602082019050919050565b60006127d7600b836133c0565b91507f5345434f4e445f574f52440000000000000000000000000000000000000000006000830152600b82019050919050565b6000612817602c836133af565b91507f4552433732313a206f70657261746f7220717565727920666f72206e6f6e657860008301527f697374656e7420746f6b656e00000000000000000000000000000000000000006020830152604082019050919050565b600061287d600d836133c0565b91507f3c2f746578743e3c2f7376673e000000000000000000000000000000000000006000830152600d82019050919050565b60006128bd6038836133af565b91507f4552433732313a20617070726f76652063616c6c6572206973206e6f74206f7760008301527f6e6572206e6f7220617070726f76656420666f7220616c6c00000000000000006020830152604082019050919050565b6000612923602a836133af565b91507f4552433732313a2062616c616e636520717565727920666f7220746865207a6560008301527f726f2061646472657373000000000000000000000000000000000000000000006020830152604082019050919050565b60006129896029836133af565b91507f4552433732313a206f776e657220717565727920666f72206e6f6e657869737460008301527f656e7420746f6b656e00000000000000000000000000000000000000000000006020830152604082019050919050565b60006129ef602e836133af565b91507f45524337323155524953746f726167653a2055524920736574206f66206e6f6e60008301527f6578697374656e7420746f6b656e0000000000000000000000000000000000006020830152604082019050919050565b6000612a556002836133c0565b91507f227d0000000000000000000000000000000000000000000000000000000000006000830152600282019050919050565b6000612a956020836133af565b91507f4552433732313a206d696e7420746f20746865207a65726f20616464726573736000830152602082019050919050565b6000612ad56031836133af565b91507f45524337323155524953746f726167653a2055524920717565727920666f722060008301527f6e6f6e6578697374656e7420746f6b656e0000000000000000000000000000006020830152604082019050919050565b6000612b3b602c836133af565b91507f4552433732313a20617070726f76656420717565727920666f72206e6f6e657860008301527f697374656e7420746f6b656e00000000000000000000000000000000000000006020830152604082019050919050565b6000612ba16029836133af565b91507f4552433732313a207472616e73666572206f6620746f6b656e2074686174206960008301527f73206e6f74206f776e00000000000000000000000000000000000000000000006020830152604082019050919050565b6000612c076065836133c0565b91507f222c20226465736372697074696f6e223a2022416e2065787472656d656c792060008301527f61726520636f6c6c656374696f6e206f662053636f727079204e4654732e222c60208301527f2022696d616765223a2022646174613a696d6167652f7376672b786d6c3b626160408301527f736536342c0000000000000000000000000000000000000000000000000000006060830152606582019050919050565b6000612cb9602f836133af565b91507f4552433732314d657461646174613a2055524920717565727920666f72206e6f60008301527f6e6578697374656e7420746f6b656e00000000000000000000000000000000006020830152604082019050919050565b6000612d1f600a836133c0565b91507f7b226e616d65223a2022000000000000000000000000000000000000000000006000830152600a82019050919050565b6000612d5f6021836133af565b91507f4552433732313a20617070726f76616c20746f2063757272656e74206f776e6560008301527f72000000000000000000000000000000000000000000000000000000000000006020830152604082019050919050565b6000612dc5600a836133c0565b91507f46495253545f574f5244000000000000000000000000000000000000000000006000830152600a82019050919050565b6000612e05601d836133c0565b91507f646174613a6170706c69636174696f6e2f6a736f6e3b6261736536342c0000006000830152601d82019050919050565b6000612e456031836133af565b91507f4552433732313a207472616e736665722063616c6c6572206973206e6f74206f60008301527f776e6572206e6f7220617070726f7665640000000000000000000000000000006020830152604082019050919050565b612ea78161354a565b82525050565b6000612eb9828461258e565b915081905092915050565b6000612ed0828561258e565b9150612edc828461258e565b91508190509392505050565b6000612ef4828661258e565b9150612f00828561258e565b9150612f0c828461258e565b9150819050949350505050565b6000612f2582856125bf565b9150612f31828461258e565b9150612f3c82612870565b91508190509392505050565b6000612f53826126e4565b9150612f5f828461258e565b915081905092915050565b6000612f75826127ca565b9150612f81828461258e565b915081905092915050565b6000612f9782612d12565b9150612fa3828561258e565b9150612fae82612bfa565b9150612fba828461258e565b9150612fc582612a48565b91508190509392505050565b6000612fdc82612db8565b9150612fe8828461258e565b915081905092915050565b6000612ffe82612df8565b915061300a828461258e565b915081905092915050565b600060208201905061302a60008301846124fe565b92915050565b600060808201905061304560008301876124fe565b61305260208301866124fe565b61305f6040830185612e9e565b8181036060830152613071818461251c565b905095945050505050565b6000602082019050613091600083018461250d565b92915050565b600060208201905081810360008301526130b18184612555565b905092915050565b600060608201905081810360008301526130d38186612555565b90506130e26020830185612e9e565b6130ef60408301846124fe565b949350505050565b600060208201905081810360008301526131108161263e565b9050919050565b60006020820190508181036000830152613130816126a4565b9050919050565b6000602082019050818103600083015261315081612724565b9050919050565b600060208201905081810360008301526131708161278a565b9050919050565b600060208201905081810360008301526131908161280a565b9050919050565b600060208201905081810360008301526131b0816128b0565b9050919050565b600060208201905081810360008301526131d081612916565b9050919050565b600060208201905081810360008301526131f08161297c565b9050919050565b60006020820190508181036000830152613210816129e2565b9050919050565b6000602082019050818103600083015261323081612a88565b9050919050565b6000602082019050818103600083015261325081612ac8565b9050919050565b6000602082019050818103600083015261327081612b2e565b9050919050565b6000602082019050818103600083015261329081612b94565b9050919050565b600060208201905081810360008301526132b081612cac565b9050919050565b600060208201905081810360008301526132d081612d52565b9050919050565b600060208201905081810360008301526132f081612e38565b9050919050565b600060208201905061330c6000830184612e9e565b92915050565b6000604051905081810181811067ffffffffffffffff82111715613339576133386136cf565b5b8060405250919050565b600067ffffffffffffffff82111561335e5761335d6136cf565b5b601f19601f8301169050602081019050919050565b60008190508160005260206000209050919050565b600081519050919050565b600081519050919050565b600082825260208201905092915050565b600082825260208201905092915050565b600081905092915050565b60006133d68261354a565b91506133e18361354a565b9250827fffffffffffffffffffffffffffffffffffffffffffffffffffffffffffffffff0382111561341657613415613642565b5b828201905092915050565b600061342c8261354a565b91506134378361354a565b92508261344757613446613671565b5b828204905092915050565b600061345d8261354a565b91506134688361354a565b9250817fffffffffffffffffffffffffffffffffffffffffffffffffffffffffffffffff04831182151516156134a1576134a0613642565b5b828202905092915050565b60006134b78261354a565b91506134c28361354a565b9250828210156134d5576134d4613642565b5b828203905092915050565b60006134eb8261352a565b9050919050565b60008115159050919050565b60007fffffffff0000000000000000000000000000000000000000000000000000000082169050919050565b600073ffffffffffffffffffffffffffffffffffffffff82169050919050565b6000819050919050565b82818337600083830152505050565b60005b83811015613581578082015181840152602081019050613566565b83811115613590576000848401525b50505050565b600060028204905060018216806135ae57607f821691505b602082108114156135c2576135c16136a0565b5b50919050565b60006135d38261354a565b91507fffffffffffffffffffffffffffffffffffffffffffffffffffffffffffffffff82141561360657613605613642565b5b600182019050919050565b600061361c8261354a565b91506136278361354a565b92508261363757613636613671565b5b828206905092915050565b7f4e487b7100000000000000000000000000000000000000000000000000000000600052601160045260246000fd5b7f4e487b7100000000000000000000000000000000000000000000000000000000600052601260045260246000fd5b7f4e487b7100000000000000000000000000000000000000000000000000000000600052602260045260246000fd5b7f4e487b7100000000000000000000000000000000000000000000000000000000600052604160045260246000fd5b6000601f19601f8301169050919050565b613718816134e0565b811461372357600080fd5b50565b61372f816134f2565b811461373a57600080fd5b50565b613746816134fe565b811461375157600080fd5b50565b61375d8161354a565b811461376857600080fd5b5056fe4142434445464748494a4b4c4d4e4f505152535455565758595a6162636465666768696a6b6c6d6e6f707172737475767778797a303132333435363738392b2f41206e65772053636f7270794e46543a20257320686173206265656e206d696e74656420746f202573a2646970667358221220e2faa5f3bd26d8e93cdf7b4b847293a2991dac04cffa62d08284ad396adbd02e64736f6c634300080000333c3f786d6c2076657273696f6e3d27312e3027207374616e64616c6f6e653d276e6f273f3e203c21444f435459504520737667205055424c494320272d2f2f5733432f2f445444205356472032303031303930342f2f454e272027687474703a2f2f7777772e77332e6f72672f54522f323030312f5245432d5356472d32303031303930342f4454442f73766731302e647464273e203c7376672076657273696f6e3d27312e302720786d6c6e733d27687474703a2f2f7777772e77332e6f72672f323030302f737667272077696474683d273530302e303030303030707427206865696768743d273530302e3030303030307074272076696577426f783d2730203020323335302e30303030303020323335302e30303030303027207072657365727665417370656374526174696f3d27784d6964594d6964206d656574273e203c67207472616e73666f726d3d277472616e736c61746528302e3030303030302c323335302e30303030303029207363616c6528302e3130303030302c2d302e31303030303029272066696c6c3d272330303030303027207374726f6b653d276e6f6e65273e203c7061746820643d274d30203131373530206c30202d31313735302031313735302030203131373530203020302031313735302030203131373530202d31313735302030202d313137353020302030202d31313735307a206d32333432302030206c30202d3131363730202d333836352030202d33383635203020302036303420302036303420343138202d352063323239202d3220343835202d3820353637202d3133203833202d3420313532202d3620313533202d3520313020392032312031303539203232203139323520302031313635202d31372034383830202d32362035343938206c2d3620343432202d313638342030202d313638342030203020393230203020393230202d3533302030202d35333020302030202d313138352030202d31313835202d3134302030202d31343020302030202d3331302030202d333130202d38302030202d383020302030202d313139302030202d31313930202d3136302030202d31363020302030203131393020302031313930202d37352030202d37352030203020333130203020333039202d3133372033202d3133382033202d352031313835202d352031313835202d333730203620632d3230332033202d3338392037202d3431322038206c2d34332031203020333735203020333735203136302030203136302030203020343330203020343330202d3231352030202d3231352030203020313335203020313335202d3132352030202d3132352030203020313935203020313935202d3530302030202d35303020302030202d3238352030202d3238352033333020302033333020302030202d3132352030202d3132352032393020302032393020302030202d3334352030202d333435202d3632352030202d36323520302030202d3338302030202d3338302035363520302035363520302030202d323437206330202d313337202d33202d353535202d37202d393330206c2d36202d363833202d313730392030202d3137303820302030202d333933362030202d333933372036303520382036303520372030202d353635206330202d333130202d33202d353739202d36202d353936206c2d36202d3331202d333930392030202d33393039203020302031313637302030203131363730203131363730203020313136373020302030202d31313637307a272f3e203c7061746820643d274d39373830203230353435206c30202d323035202d3233302030202d3233302030202d32202d313837202d33202d313838202d323832202d33202d323833202d322030202d3330352030202d333035202d3238302030202d32383020302030202d3536302030202d353630202d3137302030202d31373020302030202d3234302030202d323339202d313337202d33202d313338202d33202d33202d31313732202d32202d313137332031333520302031333520302030202d3235302030202d3235302031373520302031373520302030202d3432352030202d3432352033303020302033303020302030202d3139302030202d313930203131352030203131352030203020313935203020313935203430203020343020302030203233302030203233302033393020302033393020302030202d3233302030202d323330203532302030203532302030203020343535203020343535202d3935302030202d3935302030203020313030203020313030203639332032203639322033203320313738203220313737202d3639352030202d363935203020302031303020302031303020313730302030203137303020302030202d3334352030202d3334352033313020302033313020302030202d3538352030202d3538352032323020302032323020302032202d353032206332202d3237372034202d3430372035202d323930206c33203231322032323020302032323020302030203139302030203139302031383520302031383520302030203139302030203139302033303820322033303720332033203532332032203532322032333520302032333520302030203135302030203135302031323020302031323020302030203131373520302031313735202d3132302030202d3132302030203020323430203020323430202d3233352030202d3233352030203020353630203020353630202d3331302030202d3331302030202d3220333033202d3320333032202d3136372033202d3136382032203020313930203020313930202d3237352030202d3237352030203020323035203020323035202d313831352030202d3138313520302030202d3230357a272f3e203c2f673e203c7465787420783d273530252720793d273530252720666f6e742d73697a653d273130656d2720636c6173733d27626173652720646f6d696e616e742d626173656c696e653d276d6964646c652720746578742d616e63686f723d276d6964646c65272066696c6c3d27726564273e",
  "linkReferences": {},
  "deployedLinkReferences": {}
}