{
  "_format": "hh-sol-artifact-1",
  "contractName": "ScorpyNFT",
  "sourceName": "contracts/ScorpyNFT.sol",
  "abi": [
    {
      "inputs": [],
      "stateMutability": "nonpayable",
      "type": "constructor"
    },
    {
      "anonymous": false,
      "inputs": [
        {
          "indexed": true,
          "internalType": "address",
          "name": "owner",
          "type": "address"
        },
        {
          "indexed": true,
          "internalType": "address",
          "name": "approved",
          "type": "address"
        },
        {
          "indexed": true,
          "internalType": "uint256",
          "name": "tokenId",
          "type": "uint256"
        }
      ],
      "name": "Approval",
      "type": "event"
    },
    {
      "anonymous": false,
      "inputs": [
        {
          "indexed": true,
          "internalType": "address",
          "name": "owner",
          "type": "address"
        },
        {
          "indexed": true,
          "internalType": "address",
          "name": "operator",
          "type": "address"
        },
        {
          "indexed": false,
          "internalType": "bool",
          "name": "approved",
          "type": "bool"
        }
      ],
      "name": "ApprovalForAll",
      "type": "event"
    },
    {
      "anonymous": false,
      "inputs": [
        {
          "indexed": false,
          "internalType": "address",
          "name": "sender",
          "type": "address"
        },
        {
          "indexed": false,
          "internalType": "uint256",
          "name": "tokenId",
          "type": "uint256"
        }
      ],
      "name": "NewNFTMinted",
      "type": "event"
    },
    {
      "anonymous": false,
      "inputs": [
        {
          "indexed": false,
          "internalType": "address",
          "name": "sender",
          "type": "address"
        },
        {
          "indexed": false,
          "internalType": "uint256",
          "name": "total",
          "type": "uint256"
        }
      ],
      "name": "TotalNFTs",
      "type": "event"
    },
    {
      "anonymous": false,
      "inputs": [
        {
          "indexed": true,
          "internalType": "address",
          "name": "from",
          "type": "address"
        },
        {
          "indexed": true,
          "internalType": "address",
          "name": "to",
          "type": "address"
        },
        {
          "indexed": true,
          "internalType": "uint256",
          "name": "tokenId",
          "type": "uint256"
        }
      ],
      "name": "Transfer",
      "type": "event"
    },
    {
      "inputs": [
        {
          "internalType": "address",
          "name": "to",
          "type": "address"
        },
        {
          "internalType": "uint256",
          "name": "tokenId",
          "type": "uint256"
        }
      ],
      "name": "approve",
      "outputs": [],
      "stateMutability": "nonpayable",
      "type": "function"
    },
    {
      "inputs": [
        {
          "internalType": "address",
          "name": "owner",
          "type": "address"
        }
      ],
      "name": "balanceOf",
      "outputs": [
        {
          "internalType": "uint256",
          "name": "",
          "type": "uint256"
        }
      ],
      "stateMutability": "view",
      "type": "function"
    },
    {
      "inputs": [
        {
          "internalType": "uint256",
          "name": "tokenId",
          "type": "uint256"
        }
      ],
      "name": "getApproved",
      "outputs": [
        {
          "internalType": "address",
          "name": "",
          "type": "address"
        }
      ],
      "stateMutability": "view",
      "type": "function"
    },
    {
      "inputs": [],
      "name": "getTotalNFTsMintedSoFar",
      "outputs": [],
      "stateMutability": "nonpayable",
      "type": "function"
    },
    {
      "inputs": [
        {
          "internalType": "address",
          "name": "owner",
          "type": "address"
        },
        {
          "internalType": "address",
          "name": "operator",
          "type": "address"
        }
      ],
      "name": "isApprovedForAll",
      "outputs": [
        {
          "internalType": "bool",
          "name": "",
          "type": "bool"
        }
      ],
      "stateMutability": "view",
      "type": "function"
    },
    {
      "inputs": [],
      "name": "makeNFT",
      "outputs": [],
      "stateMutability": "nonpayable",
      "type": "function"
    },
    {
      "inputs": [],
      "name": "name",
      "outputs": [
        {
          "internalType": "string",
          "name": "",
          "type": "string"
        }
      ],
      "stateMutability": "view",
      "type": "function"
    },
    {
      "inputs": [
        {
          "internalType": "uint256",
          "name": "tokenId",
          "type": "uint256"
        }
      ],
      "name": "ownerOf",
      "outputs": [
        {
          "internalType": "address",
          "name": "",
          "type": "address"
        }
      ],
      "stateMutability": "view",
      "type": "function"
    },
    {
      "inputs": [
        {
          "internalType": "uint256",
          "name": "tokenId",
          "type": "uint256"
        }
      ],
      "name": "pickRandomColor",
      "outputs": [
        {
          "internalType": "string",
          "name": "",
          "type": "string"
        }
      ],
      "stateMutability": "view",
      "type": "function"
    },
    {
      "inputs": [
        {
          "internalType": "uint256",
          "name": "tokenId",
          "type": "uint256"
        }
      ],
      "name": "pickRandomFirstWord",
      "outputs": [
        {
          "internalType": "string",
          "name": "",
          "type": "string"
        }
      ],
      "stateMutability": "view",
      "type": "function"
    },
    {
      "inputs": [
        {
          "internalType": "uint256",
          "name": "tokenId",
          "type": "uint256"
        }
      ],
      "name": "pickRandomSecondWord",
      "outputs": [
        {
          "internalType": "string",
          "name": "",
          "type": "string"
        }
      ],
      "stateMutability": "view",
      "type": "function"
    },
    {
      "inputs": [
        {
          "internalType": "uint256",
          "name": "tokenId",
          "type": "uint256"
        }
      ],
      "name": "pickRandomThirdWord",
      "outputs": [
        {
          "internalType": "string",
          "name": "",
          "type": "string"
        }
      ],
      "stateMutability": "view",
      "type": "function"
    },
    {
      "inputs": [
        {
          "internalType": "address",
          "name": "from",
          "type": "address"
        },
        {
          "internalType": "address",
          "name": "to",
          "type": "address"
        },
        {
          "internalType": "uint256",
          "name": "tokenId",
          "type": "uint256"
        }
      ],
      "name": "safeTransferFrom",
      "outputs": [],
      "stateMutability": "nonpayable",
      "type": "function"
    },
    {
      "inputs": [
        {
          "internalType": "address",
          "name": "from",
          "type": "address"
        },
        {
          "internalType": "address",
          "name": "to",
          "type": "address"
        },
        {
          "internalType": "uint256",
          "name": "tokenId",
          "type": "uint256"
        },
        {
          "internalType": "bytes",
          "name": "_data",
          "type": "bytes"
        }
      ],
      "name": "safeTransferFrom",
      "outputs": [],
      "stateMutability": "nonpayable",
      "type": "function"
    },
    {
      "inputs": [
        {
          "internalType": "address",
          "name": "operator",
          "type": "address"
        },
        {
          "internalType": "bool",
          "name": "approved",
          "type": "bool"
        }
      ],
      "name": "setApprovalForAll",
      "outputs": [],
      "stateMutability": "nonpayable",
      "type": "function"
    },
    {
      "inputs": [
        {
          "internalType": "bytes4",
          "name": "interfaceId",
          "type": "bytes4"
        }
      ],
      "name": "supportsInterface",
      "outputs": [
        {
          "internalType": "bool",
          "name": "",
          "type": "bool"
        }
      ],
      "stateMutability": "view",
      "type": "function"
    },
    {
      "inputs": [],
      "name": "symbol",
      "outputs": [
        {
          "internalType": "string",
          "name": "",
          "type": "string"
        }
      ],
      "stateMutability": "view",
      "type": "function"
    },
    {
      "inputs": [
        {
          "internalType": "uint256",
          "name": "tokenId",
          "type": "uint256"
        }
      ],
      "name": "tokenURI",
      "outputs": [
        {
          "internalType": "string",
          "name": "",
          "type": "string"
        }
      ],
      "stateMutability": "view",
      "type": "function"
    },
    {
      "inputs": [
        {
          "internalType": "address",
          "name": "from",
          "type": "address"
        },
        {
          "internalType": "address",
          "name": "to",
          "type": "address"
        },
        {
          "internalType": "uint256",
          "name": "tokenId",
          "type": "uint256"
        }
      ],
      "name": "transferFrom",
      "outputs": [],
      "stateMutability": "nonpayable",
      "type": "function"
    }
  ],
  "bytecode": "0x6080604052604051806101e001604052806040518060400160405280600381526020017f726564000000000000000000000000000000000000000000000000000000000081525081526020016040518060400160405280600481526020017f676f6c640000000000000000000000000000000000000000000000000000000081525081526020016040518060400160405280600481526020017f626c75650000000000000000000000000000000000000000000000000000000081525081526020016040518060400160405280600381526020017f726564000000000000000000000000000000000000000000000000000000000081525081526020016040518060400160405280600381526020017f726564000000000000000000000000000000000000000000000000000000000081525081526020016040518060400160405280600481526020017f626c75650000000000000000000000000000000000000000000000000000000081525081526020016040518060400160405280600381526020017f726564000000000000000000000000000000000000000000000000000000000081525081526020016040518060400160405280600481526020017f626c75650000000000000000000000000000000000000000000000000000000081525081526020016040518060400160405280600481526020017f626c75650000000000000000000000000000000000000000000000000000000081525081526020016040518060400160405280600381526020017f726564000000000000000000000000000000000000000000000000000000000081525081526020016040518060400160405280600481526020017f676f6c640000000000000000000000000000000000000000000000000000000081525081526020016040518060400160405280600481526020017f626c75650000000000000000000000000000000000000000000000000000000081525081526020016040518060400160405280600381526020017f726564000000000000000000000000000000000000000000000000000000000081525081526020016040518060400160405280600381526020017f726564000000000000000000000000000000000000000000000000000000000081525081526020016040518060400160405280600481526020017f626c756500000000000000000000000000000000000000000000000000000000815250815250600890600f6200039592919062001017565b50604051806101e001604052806040518060400160405280600881526020017f536c696768746c7900000000000000000000000000000000000000000000000081525081526020016040518060400160405280600781526020017f546f74616c6c790000000000000000000000000000000000000000000000000081525081526020016040518060400160405280600581526020017f527573747900000000000000000000000000000000000000000000000000000081525081526020016040518060400160405280600881526020017f536c696768746c7900000000000000000000000000000000000000000000000081525081526020016040518060400160405280600481526020017f566572790000000000000000000000000000000000000000000000000000000081525081526020016040518060400160405280600781526020017f546f74616c6c790000000000000000000000000000000000000000000000000081525081526020016040518060400160405280600481526020017f4d6567610000000000000000000000000000000000000000000000000000000081525081526020016040518060400160405280600581526020017f527573747900000000000000000000000000000000000000000000000000000081525081526020016040518060400160405280600881526020017f536c696768746c7900000000000000000000000000000000000000000000000081525081526020016040518060400160405280600481526020017f566572790000000000000000000000000000000000000000000000000000000081525081526020016040518060400160405280600581526020017f527573747900000000000000000000000000000000000000000000000000000081525081526020016040518060400160405280600581526020017f527573747900000000000000000000000000000000000000000000000000000081525081526020016040518060400160405280600581526020017f527573747900000000000000000000000000000000000000000000000000000081525081526020016040518060400160405280600581526020017f527573747900000000000000000000000000000000000000000000000000000081525081526020016040518060400160405280600581526020017f5275737479000000000000000000000000000000000000000000000000000000815250815250600990600f6200072792919062001017565b50604051806101e001604052806040518060400160405280600681526020017f4e6f726d616c000000000000000000000000000000000000000000000000000081525081526020016040518060400160405280600681526020017f4e6f726d616c000000000000000000000000000000000000000000000000000081525081526020016040518060400160405280600681526020017f4e6f726d616c000000000000000000000000000000000000000000000000000081525081526020016040518060400160405280600681526020017f4e6f726d616c000000000000000000000000000000000000000000000000000081525081526020016040518060400160405280600681526020017f4e6f726d616c000000000000000000000000000000000000000000000000000081525081526020016040518060400160405280600481526020017f526172650000000000000000000000000000000000000000000000000000000081525081526020016040518060400160405280600481526020017f457069630000000000000000000000000000000000000000000000000000000081525081526020016040518060400160405280600481526020017f457069630000000000000000000000000000000000000000000000000000000081525081526020016040518060400160405280600681526020017f4e6f726d616c000000000000000000000000000000000000000000000000000081525081526020016040518060400160405280600681526020017f4e6f726d616c000000000000000000000000000000000000000000000000000081525081526020016040518060400160405280600481526020017f4e6963650000000000000000000000000000000000000000000000000000000081525081526020016040518060400160405280600481526020017f4e6963650000000000000000000000000000000000000000000000000000000081525081526020016040518060400160405280600481526020017f4e6963650000000000000000000000000000000000000000000000000000000081525081526020016040518060400160405280600481526020017f4e6963650000000000000000000000000000000000000000000000000000000081525081526020016040518060400160405280600681526020017f4e6f726d616c0000000000000000000000000000000000000000000000000000815250815250600a90600f62000ab992919062001017565b50604051806101e001604052806040518060400160405280600681526020017f53636f727079000000000000000000000000000000000000000000000000000081525081526020016040518060400160405280600681526020017f53636f727079000000000000000000000000000000000000000000000000000081525081526020016040518060400160405280600681526020017f53636f727079000000000000000000000000000000000000000000000000000081525081526020016040518060400160405280600681526020017f53636f727079000000000000000000000000000000000000000000000000000081525081526020016040518060400160405280600681526020017f53636f727079000000000000000000000000000000000000000000000000000081525081526020016040518060400160405280600681526020017f53636f727079000000000000000000000000000000000000000000000000000081525081526020016040518060400160405280600681526020017f53636f727079000000000000000000000000000000000000000000000000000081525081526020016040518060400160405280600681526020017f53636f727079000000000000000000000000000000000000000000000000000081525081526020016040518060400160405280600881526020017f53636f7270696f6e00000000000000000000000000000000000000000000000081525081526020016040518060400160405280600881526020017f53636f7270696f6e00000000000000000000000000000000000000000000000081525081526020016040518060400160405280600881526020017f53636f7270696f6e00000000000000000000000000000000000000000000000081525081526020016040518060400160405280600881526020017f53636f7270696f6e00000000000000000000000000000000000000000000000081525081526020016040518060400160405280600581526020017f534b696e6700000000000000000000000000000000000000000000000000000081525081526020016040518060400160405280600581526020017f534b696e6700000000000000000000000000000000000000000000000000000081525081526020016040518060400160405280600481526020017f53474f4400000000000000000000000000000000000000000000000000000000815250815250600b90600f62000e4b92919062001017565b5034801562000e5957600080fd5b506040518060400160405280600981526020017f53636f7270794e465400000000000000000000000000000000000000000000008152506040518060400160405280600581526020017f5354494e47000000000000000000000000000000000000000000000000000000815250816000908051906020019062000ede9291906200107e565b50806001908051906020019062000ef79291906200107e565b50505062000f456040518060400160405280602081526020017f48697373732e2e2e2048697373732e2e2e20496d6d61205374696e6720796f7581525062000f4b60201b620014581760201c565b620012c9565b62000feb8160405160240162000f629190620011dd565b6040516020818303038152906040527f41304fac000000000000000000000000000000000000000000000000000000007bffffffffffffffffffffffffffffffffffffffffffffffffffffffff19166020820180517bffffffffffffffffffffffffffffffffffffffffffffffffffffffff838183161783525050505062000fee60201b60201c565b50565b60008151905060006a636f6e736f6c652e6c6f679050602083016000808483855afa5050505050565b8280548282559060005260206000209081019282156200106b579160200282015b828111156200106a578251829080519060200190620010599291906200107e565b509160200191906001019062001038565b5b5090506200107a91906200110f565b5090565b8280546200108c9062001253565b90600052602060002090601f016020900481019282620010b05760008555620010fc565b82601f10620010cb57805160ff1916838001178555620010fc565b82800160010185558215620010fc579182015b82811115620010fb578251825591602001919060010190620010de565b5b5090506200110b919062001137565b5090565b5b8082111562001133576000818162001129919062001156565b5060010162001110565b5090565b5b808211156200115257600081600090555060010162001138565b5090565b508054620011649062001253565b6000825580601f1062001178575062001199565b601f01602090049060005260206000209081019062001198919062001137565b5b50565b6000620011a98262001201565b620011b581856200120c565b9350620011c78185602086016200121d565b620011d281620012b8565b840191505092915050565b60006020820190508181036000830152620011f981846200119c565b905092915050565b600081519050919050565b600082825260208201905092915050565b60005b838110156200123d57808201518184015260208101905062001220565b838111156200124d576000848401525b50505050565b600060028204905060018216806200126c57607f821691505b6020821081141562001283576200128262001289565b5b50919050565b7f4e487b7100000000000000000000000000000000000000000000000000000000600052602260045260246000fd5b6000601f19601f8301169050919050565b6145f480620012d96000396000f3fe608060405234801561001057600080fd5b50600436106101215760003560e01c80636352211e116100ad578063b187301f11610071578063b187301f14610306578063b88d4fde14610336578063c575757a14610352578063c87b56dd14610382578063e985e9c5146103b257610121565b80636352211e1461026257806370a082311461029257806395d89b41146102c2578063a22cb465146102e0578063b036b4bd146102fc57610121565b8063095ea7b3116100f4578063095ea7b3146101ae57806323b872dd146101ca5780632de38d68146101e657806342842e0e14610216578063514dc8c61461023257610121565b806301ffc9a714610126578063060475901461015657806306fdde0314610160578063081812fc1461017e575b600080fd5b610140600480360381019061013b91906126eb565b6103e2565b60405161014d9190613e5b565b60405180910390f35b61015e6104c4565b005b610168610508565b6040516101759190613e76565b60405180910390f35b6101986004803603810190610193919061273d565b61059a565b6040516101a59190613dcb565b60405180910390f35b6101c860048036038101906101c391906126af565b61061f565b005b6101e460048036038101906101df91906125a9565b610737565b005b61020060048036038101906101fb919061273d565b610797565b60405161020d9190613e76565b60405180910390f35b610230600480360381019061022b91906125a9565b6108b5565b005b61024c6004803603810190610247919061273d565b6108d5565b6040516102599190613e76565b60405180910390f35b61027c6004803603810190610277919061273d565b6109f3565b6040516102899190613dcb565b60405180910390f35b6102ac60048036038101906102a79190612544565b610aa5565b6040516102b991906140f6565b60405180910390f35b6102ca610b5d565b6040516102d79190613e76565b60405180910390f35b6102fa60048036038101906102f59190612673565b610bef565b005b610304610d70565b005b610320600480360381019061031b919061273d565b610fd4565b60405161032d9190613e76565b60405180910390f35b610350600480360381019061034b91906125f8565b6110f2565b005b61036c6004803603810190610367919061273d565b611154565b6040516103799190613e76565b60405180910390f35b61039c6004803603810190610397919061273d565b611272565b6040516103a99190613e76565b60405180910390f35b6103cc60048036038101906103c7919061256d565b6113c4565b6040516103d99190613e5b565b60405180910390f35b60007f80ac58cd000000000000000000000000000000000000000000000000000000007bffffffffffffffffffffffffffffffffffffffffffffffffffffffff1916827bffffffffffffffffffffffffffffffffffffffffffffffffffffffff191614806104ad57507f5b5e139f000000000000000000000000000000000000000000000000000000007bffffffffffffffffffffffffffffffffffffffffffffffffffffffff1916827bffffffffffffffffffffffffffffffffffffffffffffffffffffffff1916145b806104bd57506104bc826114f1565b5b9050919050565b7f1725ff90c914bbfcc2793d87f30c403de356a80173641f29a71db31564e142f2336104f0600761155b565b6040516104fe929190613e32565b60405180910390a1565b60606000805461051790614380565b80601f016020809104026020016040519081016040528092919081815260200182805461054390614380565b80156105905780601f1061056557610100808354040283529160200191610590565b820191906000526020600020905b81548152906001019060200180831161057357829003601f168201915b5050505050905090565b60006105a582611569565b6105e4576040517f08c379a00000000000000000000000000000000000000000000000000000000081526004016105db90614036565b60405180910390fd5b6004600083815260200190815260200160002060009054906101000a900473ffffffffffffffffffffffffffffffffffffffff169050919050565b600061062a826109f3565b90508073ffffffffffffffffffffffffffffffffffffffff168373ffffffffffffffffffffffffffffffffffffffff16141561069b576040517f08c379a000000000000000000000000000000000000000000000000000000000815260040161069290614096565b60405180910390fd5b8073ffffffffffffffffffffffffffffffffffffffff166106ba6115d5565b73ffffffffffffffffffffffffffffffffffffffff1614806106e957506106e8816106e36115d5565b6113c4565b5b610728576040517f08c379a000000000000000000000000000000000000000000000000000000000815260040161071f90613f76565b60405180910390fd5b61073283836115dd565b505050565b6107486107426115d5565b82611696565b610787576040517f08c379a000000000000000000000000000000000000000000000000000000000815260040161077e906140b6565b60405180910390fd5b610792838383611774565b505050565b606060006107cb6107a7846119d0565b6040516020016107b79190613d65565b604051602081830303815290604052611b7d565b9050600980549050816107de91906143fb565b90506009818154811061081a577f4e487b7100000000000000000000000000000000000000000000000000000000600052603260045260246000fd5b90600052602060002001805461082f90614380565b80601f016020809104026020016040519081016040528092919081815260200182805461085b90614380565b80156108a85780601f1061087d576101008083540402835291602001916108a8565b820191906000526020600020905b81548152906001019060200180831161088b57829003601f168201915b5050505050915050919050565b6108d0838383604051806020016040528060008152506110f2565b505050565b606060006109096108e5846119d0565b6040516020016108f59190613da9565b604051602081830303815290604052611b7d565b90506008805490508161091c91906143fb565b905060088181548110610958577f4e487b7100000000000000000000000000000000000000000000000000000000600052603260045260246000fd5b90600052602060002001805461096d90614380565b80601f016020809104026020016040519081016040528092919081815260200182805461099990614380565b80156109e65780601f106109bb576101008083540402835291602001916109e6565b820191906000526020600020905b8154815290600101906020018083116109c957829003601f168201915b5050505050915050919050565b6000806002600084815260200190815260200160002060009054906101000a900473ffffffffffffffffffffffffffffffffffffffff169050600073ffffffffffffffffffffffffffffffffffffffff168173ffffffffffffffffffffffffffffffffffffffff161415610a9c576040517f08c379a0000000000000000000000000000000000000000000000000000000008152600401610a9390613fb6565b60405180910390fd5b80915050919050565b60008073ffffffffffffffffffffffffffffffffffffffff168273ffffffffffffffffffffffffffffffffffffffff161415610b16576040517f08c379a0000000000000000000000000000000000000000000000000000000008152600401610b0d90613f96565b60405180910390fd5b600360008373ffffffffffffffffffffffffffffffffffffffff1673ffffffffffffffffffffffffffffffffffffffff168152602001908152602001600020549050919050565b606060018054610b6c90614380565b80601f0160208091040260200160405190810160405280929190818152602001828054610b9890614380565b8015610be55780601f10610bba57610100808354040283529160200191610be5565b820191906000526020600020905b815481529060010190602001808311610bc857829003601f168201915b5050505050905090565b610bf76115d5565b73ffffffffffffffffffffffffffffffffffffffff168273ffffffffffffffffffffffffffffffffffffffff161415610c65576040517f08c379a0000000000000000000000000000000000000000000000000000000008152600401610c5c90613f36565b60405180910390fd5b8060056000610c726115d5565b73ffffffffffffffffffffffffffffffffffffffff1673ffffffffffffffffffffffffffffffffffffffff16815260200190815260200160002060008473ffffffffffffffffffffffffffffffffffffffff1673ffffffffffffffffffffffffffffffffffffffff16815260200190815260200160002060006101000a81548160ff0219169083151502179055508173ffffffffffffffffffffffffffffffffffffffff16610d1f6115d5565b73ffffffffffffffffffffffffffffffffffffffff167f17307eab39ab6107e8899845ad3d59bd9653f200f220920489ca2b5937696c3183604051610d649190613e5b565b60405180910390a35050565b6000610d7c600761155b565b9050601f8110610dc1576040517f08c379a0000000000000000000000000000000000000000000000000000000008152600401610db8906140d6565b60405180910390fd5b6000610dcc826108d5565b9050600081604051602001610de19190613cf3565b60405160208183030381529060405290506000610dfd84610797565b90506000610e0a85610fd4565b90506000610e1786611154565b90506000838383604051602001610e3093929190613c4f565b604051602081830303815290604052905060008582604051602001610e56929190613c80565b60405160208183030381529060405290506000610e9b83610e7684611bb0565b604051602001610e87929190613d20565b604051602081830303815290604052611bb0565b9050600081604051602001610eb09190613d87565b6040516020818303038152906040529050610eff6040518060400160405280601581526020017f0a2d2d2d2d2d2d2d2d2d2d2d2d2d2d2d2d2d2d2d2d0000000000000000000000815250611458565b610f0881611458565b610f466040518060400160405280601581526020017f2d2d2d2d2d2d2d2d2d2d2d2d2d2d2d2d2d2d2d2d0a0000000000000000000000815250611458565b610f50338b611d6e565b610f5a8a82611d8c565b610f7d604051806060016040528060298152602001614596602991398b33611e00565b610f876007611e9f565b7f1c05098ed1ff38e6238d2b1b04b2c7977d4c94ce651bda6473f9dba8dbf01da0338b604051610fb8929190613e32565b60405180910390a1610fc86104c4565b50505050505050505050565b60606000611008610fe4846119d0565b604051602001610ff49190613cd1565b604051602081830303815290604052611b7d565b9050600a805490508161101b91906143fb565b9050600a8181548110611057577f4e487b7100000000000000000000000000000000000000000000000000000000600052603260045260246000fd5b90600052602060002001805461106c90614380565b80601f016020809104026020016040519081016040528092919081815260200182805461109890614380565b80156110e55780601f106110ba576101008083540402835291602001916110e5565b820191906000526020600020905b8154815290600101906020018083116110c857829003601f168201915b5050505050915050919050565b6111036110fd6115d5565b83611696565b611142576040517f08c379a0000000000000000000000000000000000000000000000000000000008152600401611139906140b6565b60405180910390fd5b61114e84848484611eb5565b50505050565b60606000611188611164846119d0565b6040516020016111749190613caf565b604051602081830303815290604052611b7d565b9050600b805490508161119b91906143fb565b9050600b81815481106111d7577f4e487b7100000000000000000000000000000000000000000000000000000000600052603260045260246000fd5b9060005260206000200180546111ec90614380565b80601f016020809104026020016040519081016040528092919081815260200182805461121890614380565b80156112655780601f1061123a57610100808354040283529160200191611265565b820191906000526020600020905b81548152906001019060200180831161124857829003601f168201915b5050505050915050919050565b606061127d82611569565b6112bc576040517f08c379a00000000000000000000000000000000000000000000000000000000081526004016112b390614016565b60405180910390fd5b60006006600084815260200190815260200160002080546112dc90614380565b80601f016020809104026020016040519081016040528092919081815260200182805461130890614380565b80156113555780601f1061132a57610100808354040283529160200191611355565b820191906000526020600020905b81548152906001019060200180831161133857829003601f168201915b505050505090506000611366611f11565b905060008151141561137c5781925050506113bf565b6000825111156113b1578082604051602001611399929190613c2b565b604051602081830303815290604052925050506113bf565b6113ba84611f28565b925050505b919050565b6000600560008473ffffffffffffffffffffffffffffffffffffffff1673ffffffffffffffffffffffffffffffffffffffff16815260200190815260200160002060008373ffffffffffffffffffffffffffffffffffffffff1673ffffffffffffffffffffffffffffffffffffffff16815260200190815260200160002060009054906101000a900460ff16905092915050565b6114ee8160405160240161146c9190613e76565b6040516020818303038152906040527f41304fac000000000000000000000000000000000000000000000000000000007bffffffffffffffffffffffffffffffffffffffffffffffffffffffff19166020820180517bffffffffffffffffffffffffffffffffffffffffffffffffffffffff8381831617835250505050611fcf565b50565b60007f01ffc9a7000000000000000000000000000000000000000000000000000000007bffffffffffffffffffffffffffffffffffffffffffffffffffffffff1916827bffffffffffffffffffffffffffffffffffffffffffffffffffffffff1916149050919050565b600081600001549050919050565b60008073ffffffffffffffffffffffffffffffffffffffff166002600084815260200190815260200160002060009054906101000a900473ffffffffffffffffffffffffffffffffffffffff1673ffffffffffffffffffffffffffffffffffffffff1614159050919050565b600033905090565b816004600083815260200190815260200160002060006101000a81548173ffffffffffffffffffffffffffffffffffffffff021916908373ffffffffffffffffffffffffffffffffffffffff160217905550808273ffffffffffffffffffffffffffffffffffffffff16611650836109f3565b73ffffffffffffffffffffffffffffffffffffffff167f8c5be1e5ebec7d5bd14f71427d1e84f3dd0314c0f7b2291e5b200ac8c7c3b92560405160405180910390a45050565b60006116a182611569565b6116e0576040517f08c379a00000000000000000000000000000000000000000000000000000000081526004016116d790613f56565b60405180910390fd5b60006116eb836109f3565b90508073ffffffffffffffffffffffffffffffffffffffff168473ffffffffffffffffffffffffffffffffffffffff16148061175a57508373ffffffffffffffffffffffffffffffffffffffff166117428461059a565b73ffffffffffffffffffffffffffffffffffffffff16145b8061176b575061176a81856113c4565b5b91505092915050565b8273ffffffffffffffffffffffffffffffffffffffff16611794826109f3565b73ffffffffffffffffffffffffffffffffffffffff16146117ea576040517f08c379a00000000000000000000000000000000000000000000000000000000081526004016117e190614056565b60405180910390fd5b600073ffffffffffffffffffffffffffffffffffffffff168273ffffffffffffffffffffffffffffffffffffffff16141561185a576040517f08c379a000000000000000000000000000000000000000000000000000000000815260040161185190613f16565b60405180910390fd5b611865838383611ff8565b6118706000826115dd565b6001600360008573ffffffffffffffffffffffffffffffffffffffff1673ffffffffffffffffffffffffffffffffffffffff16815260200190815260200160002060008282546118c09190614296565b925050819055506001600360008473ffffffffffffffffffffffffffffffffffffffff1673ffffffffffffffffffffffffffffffffffffffff168152602001908152602001600020600082825461191791906141b5565b92505081905550816002600083815260200190815260200160002060006101000a81548173ffffffffffffffffffffffffffffffffffffffff021916908373ffffffffffffffffffffffffffffffffffffffff160217905550808273ffffffffffffffffffffffffffffffffffffffff168473ffffffffffffffffffffffffffffffffffffffff167fddf252ad1be2c89b69c2b068fc378daa952ba7f163c4a11628f55a4df523b3ef60405160405180910390a4505050565b60606000821415611a18576040518060400160405280600181526020017f30000000000000000000000000000000000000000000000000000000000000008152509050611b78565b600082905060005b60008214611a4a578080611a33906143b2565b915050600a82611a43919061420b565b9150611a20565b60008167ffffffffffffffff811115611a8c577f4e487b7100000000000000000000000000000000000000000000000000000000600052604160045260246000fd5b6040519080825280601f01601f191660200182016040528015611abe5781602001600182028036833780820191505090505b5090505b60008514611b7157600182611ad79190614296565b9150600a85611ae691906143fb565b6030611af291906141b5565b60f81b818381518110611b2e577f4e487b7100000000000000000000000000000000000000000000000000000000600052603260045260246000fd5b60200101907effffffffffffffffffffffffffffffffffffffffffffffffffffffffffffff1916908160001a905350600a85611b6a919061420b565b9450611ac2565b8093505050505b919050565b600081604051602001611b909190613c14565b6040516020818303038152906040528051906020012060001c9050919050565b60606000825190506000811415611bd95760405180602001604052806000815250915050611d69565b60006003600283611bea91906141b5565b611bf4919061420b565b6004611c00919061423c565b90506000602082611c1191906141b5565b67ffffffffffffffff811115611c50577f4e487b7100000000000000000000000000000000000000000000000000000000600052604160045260246000fd5b6040519080825280601f01601f191660200182016040528015611c825781602001600182028036833780820191505090505b5090506000604051806060016040528060408152602001614556604091399050600181016020830160005b86811015611d265760038101905062ffffff818a015116603f8160121c168401518060081b905060ff603f83600c1c1686015116810190508060081b905060ff603f8360061c1686015116810190508060081b905060ff603f831686015116810190508060e01b90508084526004840193505050611cad565b506003860660018114611d405760028114611d5057611d5b565b613d3d60f01b6002830352611d5b565b603d60f81b60018303525b508484525050819450505050505b919050565b611d88828260405180602001604052806000815250611ffd565b5050565b611d9582611569565b611dd4576040517f08c379a0000000000000000000000000000000000000000000000000000000008152600401611dcb90613fd6565b60405180910390fd5b80600660008481526020019081526020016000209080519060200190611dfb9291906123d0565b505050565b611e9a838383604051602401611e1893929190613e98565b6040516020818303038152906040527fe3849f79000000000000000000000000000000000000000000000000000000007bffffffffffffffffffffffffffffffffffffffffffffffffffffffff19166020820180517bffffffffffffffffffffffffffffffffffffffffffffffffffffffff8381831617835250505050611fcf565b505050565b6001816000016000828254019250508190555050565b611ec0848484611774565b611ecc84848484612058565b611f0b576040517f08c379a0000000000000000000000000000000000000000000000000000000008152600401611f0290613ed6565b60405180910390fd5b50505050565b606060405180602001604052806000815250905090565b6060611f3382611569565b611f72576040517f08c379a0000000000000000000000000000000000000000000000000000000008152600401611f6990614076565b60405180910390fd5b6000611f7c611f11565b90506000815111611f9c5760405180602001604052806000815250611fc7565b80611fa6846119d0565b604051602001611fb7929190613c2b565b6040516020818303038152906040525b915050919050565b60008151905060006a636f6e736f6c652e6c6f679050602083016000808483855afa5050505050565b505050565b61200783836121ef565b6120146000848484612058565b612053576040517f08c379a000000000000000000000000000000000000000000000000000000000815260040161204a90613ed6565b60405180910390fd5b505050565b60006120798473ffffffffffffffffffffffffffffffffffffffff166123bd565b156121e2578373ffffffffffffffffffffffffffffffffffffffff1663150b7a026120a26115d5565b8786866040518563ffffffff1660e01b81526004016120c49493929190613de6565b602060405180830381600087803b1580156120de57600080fd5b505af192505050801561210f57506040513d601f19601f8201168201806040525081019061210c9190612714565b60015b612192573d806000811461213f576040519150601f19603f3d011682016040523d82523d6000602084013e612144565b606091505b5060008151141561218a576040517f08c379a000000000000000000000000000000000000000000000000000000000815260040161218190613ed6565b60405180910390fd5b805181602001fd5b63150b7a0260e01b7bffffffffffffffffffffffffffffffffffffffffffffffffffffffff1916817bffffffffffffffffffffffffffffffffffffffffffffffffffffffff1916149150506121e7565b600190505b949350505050565b600073ffffffffffffffffffffffffffffffffffffffff168273ffffffffffffffffffffffffffffffffffffffff16141561225f576040517f08c379a000000000000000000000000000000000000000000000000000000000815260040161225690613ff6565b60405180910390fd5b61226881611569565b156122a8576040517f08c379a000000000000000000000000000000000000000000000000000000000815260040161229f90613ef6565b60405180910390fd5b6122b460008383611ff8565b6001600360008473ffffffffffffffffffffffffffffffffffffffff1673ffffffffffffffffffffffffffffffffffffffff168152602001908152602001600020600082825461230491906141b5565b92505081905550816002600083815260200190815260200160002060006101000a81548173ffffffffffffffffffffffffffffffffffffffff021916908373ffffffffffffffffffffffffffffffffffffffff160217905550808273ffffffffffffffffffffffffffffffffffffffff16600073ffffffffffffffffffffffffffffffffffffffff167fddf252ad1be2c89b69c2b068fc378daa952ba7f163c4a11628f55a4df523b3ef60405160405180910390a45050565b600080823b905060008111915050919050565b8280546123dc90614380565b90600052602060002090601f0160209004810192826123fe5760008555612445565b82601f1061241757805160ff1916838001178555612445565b82800160010185558215612445579182015b82811115612444578251825591602001919060010190612429565b5b5090506124529190612456565b5090565b5b8082111561246f576000816000905550600101612457565b5090565b600061248661248184614142565b614111565b90508281526020810184848401111561249e57600080fd5b6124a984828561433e565b509392505050565b6000813590506124c0816144f9565b92915050565b6000813590506124d581614510565b92915050565b6000813590506124ea81614527565b92915050565b6000815190506124ff81614527565b92915050565b600082601f83011261251657600080fd5b8135612526848260208601612473565b91505092915050565b60008135905061253e8161453e565b92915050565b60006020828403121561255657600080fd5b6000612564848285016124b1565b91505092915050565b6000806040838503121561258057600080fd5b600061258e858286016124b1565b925050602061259f858286016124b1565b9150509250929050565b6000806000606084860312156125be57600080fd5b60006125cc868287016124b1565b93505060206125dd868287016124b1565b92505060406125ee8682870161252f565b9150509250925092565b6000806000806080858703121561260e57600080fd5b600061261c878288016124b1565b945050602061262d878288016124b1565b935050604061263e8782880161252f565b925050606085013567ffffffffffffffff81111561265b57600080fd5b61266787828801612505565b91505092959194509250565b6000806040838503121561268657600080fd5b6000612694858286016124b1565b92505060206126a5858286016124c6565b9150509250929050565b600080604083850312156126c257600080fd5b60006126d0858286016124b1565b92505060206126e18582860161252f565b9150509250929050565b6000602082840312156126fd57600080fd5b600061270b848285016124db565b91505092915050565b60006020828403121561272657600080fd5b6000612734848285016124f0565b91505092915050565b60006020828403121561274f57600080fd5b600061275d8482850161252f565b91505092915050565b61276f816142ca565b82525050565b61277e816142dc565b82525050565b600061278f82614172565b6127998185614188565b93506127a981856020860161434d565b6127b2816144e8565b840191505092915050565b60006127c88261417d565b6127d28185614199565b93506127e281856020860161434d565b6127eb816144e8565b840191505092915050565b60006128018261417d565b61280b81856141aa565b935061281b81856020860161434d565b80840191505092915050565b6000612834603283614199565b91507f4552433732313a207472616e7366657220746f206e6f6e20455243373231526560008301527f63656976657220696d706c656d656e74657200000000000000000000000000006020830152604082019050919050565b600061289a601c83614199565b91507f4552433732313a20746f6b656e20616c7265616479206d696e746564000000006000830152602082019050919050565b60006128da600a836141aa565b91507f54484952445f574f5244000000000000000000000000000000000000000000006000830152600a82019050919050565b600061291a602483614199565b91507f4552433732313a207472616e7366657220746f20746865207a65726f2061646460008301527f72657373000000000000000000000000000000000000000000000000000000006020830152604082019050919050565b6000612980601983614199565b91507f4552433732313a20617070726f766520746f2063616c6c6572000000000000006000830152602082019050919050565b60006129c0600b836141aa565b91507f5345434f4e445f574f52440000000000000000000000000000000000000000006000830152600b82019050919050565b6000612a00602c83614199565b91507f4552433732313a206f70657261746f7220717565727920666f72206e6f6e657860008301527f697374656e7420746f6b656e00000000000000000000000000000000000000006020830152604082019050919050565b6000612a676108a3836141aa565b91507f3c3f786d6c2076657273696f6e3d27312e3027207374616e64616c6f6e653d2760008301527f6e6f273f3e203c21444f435459504520737667205055424c494320272d2f2f5760208301527f33432f2f445444205356472032303031303930342f2f454e272027687474703a60408301527f2f2f7777772e77332e6f72672f54522f323030312f5245432d5356472d32303060608301527f31303930342f4454442f73766731302e647464273e203c73766720766572736960808301527f6f6e3d27312e302720786d6c6e733d27687474703a2f2f7777772e77332e6f7260a08301527f672f323030302f737667272077696474683d273530302e30303030303070742760c08301527f206865696768743d273530302e3030303030307074272076696577426f783d2760e08301527f30203020323335302e30303030303020323335302e30303030303027207072656101008301527f7365727665417370656374526174696f3d27784d6964594d6964206d656574276101208301527f3e203c67207472616e73666f726d3d277472616e736c61746528302e303030306101408301527f30302c323335302e30303030303029207363616c6528302e3130303030302c2d6101608301527f302e31303030303029272066696c6c3d272330303030303027207374726f6b656101808301527f3d276e6f6e65273e203c7061746820643d274d30203131373530206c30202d316101a08301527f31373530203131373530203020313137353020302030203131373530203020316101c08301527f31373530202d31313735302030202d313137353020302030202d31313735307a6101e08301527f206d32333432302030206c30202d3131363730202d333836352030202d3338366102008301527f35203020302036303420302036303420343138202d352063323239202d3220346102208301527f3835202d3820353637202d3133203833202d3420313532202d3620313533202d6102408301527f3520313020392032312031303539203232203139323520302031313635202d316102608301527f372034383830202d32362035343938206c2d3620343432202d313638342030206102808301527f2d313638342030203020393230203020393230202d3533302030202d353330206102a08301527f302030202d313138352030202d31313835202d3134302030202d3134302030206102c08301527f30202d3331302030202d333130202d38302030202d383020302030202d3131396102e08301527f302030202d31313930202d3136302030202d31363020302030203131393020306103008301527f2031313930202d37352030202d37352030203020333130203020333039202d316103208301527f33372033202d3133382033202d352031313835202d352031313835202d3337306103408301527f203620632d3230332033202d3338392037202d3431322038206c2d34332031206103608301527f30203337352030203337352031363020302031363020302030203433302030206103808301527f343330202d3231352030202d3231352030203020313335203020313335202d316103a08301527f32352030202d3132352030203020313935203020313935202d3530302030202d6103c08301527f35303020302030202d3238352030202d323835203333302030203333302030206103e08301527f30202d3132352030202d3132352032393020302032393020302030202d3334356104008301527f2030202d333435202d3632352030202d36323520302030202d3338302030202d6104208301527f3338302035363520302035363520302030202d323437206330202d313337202d6104408301527f33202d353535202d37202d393330206c2d36202d363833202d313730392030206104608301527f2d3137303820302030202d333933362030202d333933372036303520382036306104808301527f3520372030202d353635206330202d333130202d33202d353739202d36202d356104a08301527f3936206c2d36202d3331202d333930392030202d3339303920302030203131366104c08301527f37302030203131363730203131363730203020313136373020302030202d31316104e08301527f3637307a272f3e203c7061746820643d274d39373830203230353435206c30206105008301527f2d323035202d3233302030202d3233302030202d32202d313837202d33202d316105208301527f3838202d323832202d33202d323833202d322030202d3330352030202d3330356105408301527f202d3238302030202d32383020302030202d3536302030202d353630202d31376105608301527f302030202d31373020302030202d3234302030202d323339202d313337202d336105808301527f202d313338202d33202d33202d31313732202d32202d313137332031333520306105a08301527f2031333520302030202d3235302030202d3235302031373520302031373520306105c08301527f2030202d3432352030202d3432352033303020302033303020302030202d31396105e08301527f302030202d3139302031313520302031313520302030203139352030203139356106008301527f20343020302034302030203020323330203020323330203339302030203339306106208301527f20302030202d3233302030202d323330203532302030203532302030203020346106408301527f3535203020343535202d3935302030202d3935302030203020313030203020316106608301527f3030203639332032203639322033203320313738203220313737202d363935206106808301527f30202d36393520302030203130302030203130302031373030203020313730306106a08301527f20302030202d3334352030202d3334352033313020302033313020302030202d6106c08301527f3538352030202d3538352032323020302032323020302032202d3530322063326106e08301527f202d3237372034202d3430372035202d323930206c33203231322032323020306107008301527f20323230203020302031393020302031393020313835203020313835203020306107208301527f20313930203020313930203330382032203330372033203320353233203220356107408301527f32322032333520302032333520302030203135302030203135302031323020306107608301527f2031323020302030203131373520302031313735202d3132302030202d3132306107808301527f2030203020323430203020323430202d3233352030202d3233352030203020356107a08301527f3630203020353630202d3331302030202d3331302030202d3220333033202d336107c08301527f20333032202d3136372033202d3136382032203020313930203020313930202d6107e08301527f3237352030202d3237352030203020323035203020323035202d3138313520306108008301527f202d3138313520302030202d3230357a272f3e203c2f673e203c7465787420786108208301527f3d273530252720793d273530252720666f6e742d73697a653d273132656d27206108408301527f636c6173733d27626173652720646f6d696e616e742d626173656c696e653d276108608301527f6d6964646c652720746578742d616e63686f723d276d6964646c65272066696c6108808301527f6c3d2700000000000000000000000000000000000000000000000000000000006108a08301526108a382019050919050565b6000613524600d836141aa565b91507f3c2f746578743e3c2f7376673e000000000000000000000000000000000000006000830152600d82019050919050565b6000613564603883614199565b91507f4552433732313a20617070726f76652063616c6c6572206973206e6f74206f7760008301527f6e6572206e6f7220617070726f76656420666f7220616c6c00000000000000006020830152604082019050919050565b60006135ca602a83614199565b91507f4552433732313a2062616c616e636520717565727920666f7220746865207a6560008301527f726f2061646472657373000000000000000000000000000000000000000000006020830152604082019050919050565b6000613630602983614199565b91507f4552433732313a206f776e657220717565727920666f72206e6f6e657869737460008301527f656e7420746f6b656e00000000000000000000000000000000000000000000006020830152604082019050919050565b6000613696602e83614199565b91507f45524337323155524953746f726167653a2055524920736574206f66206e6f6e60008301527f6578697374656e7420746f6b656e0000000000000000000000000000000000006020830152604082019050919050565b60006136fc6002836141aa565b91507f227d0000000000000000000000000000000000000000000000000000000000006000830152600282019050919050565b600061373c602083614199565b91507f4552433732313a206d696e7420746f20746865207a65726f20616464726573736000830152602082019050919050565b600061377c603183614199565b91507f45524337323155524953746f726167653a2055524920717565727920666f722060008301527f6e6f6e6578697374656e7420746f6b656e0000000000000000000000000000006020830152604082019050919050565b60006137e2602c83614199565b91507f4552433732313a20617070726f76656420717565727920666f72206e6f6e657860008301527f697374656e7420746f6b656e00000000000000000000000000000000000000006020830152604082019050919050565b6000613848602983614199565b91507f4552433732313a207472616e73666572206f6620746f6b656e2074686174206960008301527f73206e6f74206f776e00000000000000000000000000000000000000000000006020830152604082019050919050565b60006138ae6065836141aa565b91507f222c20226465736372697074696f6e223a2022416e2065787472656d656c792060008301527f61726520636f6c6c656374696f6e206f662053636f727079204e4654732e222c60208301527f2022696d616765223a2022646174613a696d6167652f7376672b786d6c3b626160408301527f736536342c0000000000000000000000000000000000000000000000000000006060830152606582019050919050565b6000613960602f83614199565b91507f4552433732314d657461646174613a2055524920717565727920666f72206e6f60008301527f6e6578697374656e7420746f6b656e00000000000000000000000000000000006020830152604082019050919050565b60006139c6600a836141aa565b91507f7b226e616d65223a2022000000000000000000000000000000000000000000006000830152600a82019050919050565b6000613a06602183614199565b91507f4552433732313a20617070726f76616c20746f2063757272656e74206f776e6560008301527f72000000000000000000000000000000000000000000000000000000000000006020830152604082019050919050565b6000613a6c600a836141aa565b91507f46495253545f574f5244000000000000000000000000000000000000000000006000830152600a82019050919050565b6000613aac601d836141aa565b91507f646174613a6170706c69636174696f6e2f6a736f6e3b6261736536342c0000006000830152601d82019050919050565b6000613aec603183614199565b91507f4552433732313a207472616e736665722063616c6c6572206973206e6f74206f60008301527f776e6572206e6f7220617070726f7665640000000000000000000000000000006020830152604082019050919050565b6000613b526002836141aa565b91507f273e0000000000000000000000000000000000000000000000000000000000006000830152600282019050919050565b6000613b926005836141aa565b91507f434f4c4f520000000000000000000000000000000000000000000000000000006000830152600582019050919050565b6000613bd2601e83614199565b91507f4d6178696d756d204e4654732068617665206265656e206d696e7465642100006000830152602082019050919050565b613c0e81614334565b82525050565b6000613c2082846127f6565b915081905092915050565b6000613c3782856127f6565b9150613c4382846127f6565b91508190509392505050565b6000613c5b82866127f6565b9150613c6782856127f6565b9150613c7382846127f6565b9150819050949350505050565b6000613c8c82856127f6565b9150613c9882846127f6565b9150613ca382613517565b91508190509392505050565b6000613cba826128cd565b9150613cc682846127f6565b915081905092915050565b6000613cdc826129b3565b9150613ce882846127f6565b915081905092915050565b6000613cfe82612a59565b9150613d0a82846127f6565b9150613d1582613b45565b915081905092915050565b6000613d2b826139b9565b9150613d3782856127f6565b9150613d42826138a1565b9150613d4e82846127f6565b9150613d59826136ef565b91508190509392505050565b6000613d7082613a5f565b9150613d7c82846127f6565b915081905092915050565b6000613d9282613a9f565b9150613d9e82846127f6565b915081905092915050565b6000613db482613b85565b9150613dc082846127f6565b915081905092915050565b6000602082019050613de06000830184612766565b92915050565b6000608082019050613dfb6000830187612766565b613e086020830186612766565b613e156040830185613c05565b8181036060830152613e278184612784565b905095945050505050565b6000604082019050613e476000830185612766565b613e546020830184613c05565b9392505050565b6000602082019050613e706000830184612775565b92915050565b60006020820190508181036000830152613e9081846127bd565b905092915050565b60006060820190508181036000830152613eb281866127bd565b9050613ec16020830185613c05565b613ece6040830184612766565b949350505050565b60006020820190508181036000830152613eef81612827565b9050919050565b60006020820190508181036000830152613f0f8161288d565b9050919050565b60006020820190508181036000830152613f2f8161290d565b9050919050565b60006020820190508181036000830152613f4f81612973565b9050919050565b60006020820190508181036000830152613f6f816129f3565b9050919050565b60006020820190508181036000830152613f8f81613557565b9050919050565b60006020820190508181036000830152613faf816135bd565b9050919050565b60006020820190508181036000830152613fcf81613623565b9050919050565b60006020820190508181036000830152613fef81613689565b9050919050565b6000602082019050818103600083015261400f8161372f565b9050919050565b6000602082019050818103600083015261402f8161376f565b9050919050565b6000602082019050818103600083015261404f816137d5565b9050919050565b6000602082019050818103600083015261406f8161383b565b9050919050565b6000602082019050818103600083015261408f81613953565b9050919050565b600060208201905081810360008301526140af816139f9565b9050919050565b600060208201905081810360008301526140cf81613adf565b9050919050565b600060208201905081810360008301526140ef81613bc5565b9050919050565b600060208201905061410b6000830184613c05565b92915050565b6000604051905081810181811067ffffffffffffffff82111715614138576141376144b9565b5b8060405250919050565b600067ffffffffffffffff82111561415d5761415c6144b9565b5b601f19601f8301169050602081019050919050565b600081519050919050565b600081519050919050565b600082825260208201905092915050565b600082825260208201905092915050565b600081905092915050565b60006141c082614334565b91506141cb83614334565b9250827fffffffffffffffffffffffffffffffffffffffffffffffffffffffffffffffff03821115614200576141ff61442c565b5b828201905092915050565b600061421682614334565b915061422183614334565b9250826142315761423061445b565b5b828204905092915050565b600061424782614334565b915061425283614334565b9250817fffffffffffffffffffffffffffffffffffffffffffffffffffffffffffffffff048311821515161561428b5761428a61442c565b5b828202905092915050565b60006142a182614334565b91506142ac83614334565b9250828210156142bf576142be61442c565b5b828203905092915050565b60006142d582614314565b9050919050565b60008115159050919050565b60007fffffffff0000000000000000000000000000000000000000000000000000000082169050919050565b600073ffffffffffffffffffffffffffffffffffffffff82169050919050565b6000819050919050565b82818337600083830152505050565b60005b8381101561436b578082015181840152602081019050614350565b8381111561437a576000848401525b50505050565b6000600282049050600182168061439857607f821691505b602082108114156143ac576143ab61448a565b5b50919050565b60006143bd82614334565b91507fffffffffffffffffffffffffffffffffffffffffffffffffffffffffffffffff8214156143f0576143ef61442c565b5b600182019050919050565b600061440682614334565b915061441183614334565b9250826144215761442061445b565b5b828206905092915050565b7f4e487b7100000000000000000000000000000000000000000000000000000000600052601160045260246000fd5b7f4e487b7100000000000000000000000000000000000000000000000000000000600052601260045260246000fd5b7f4e487b7100000000000000000000000000000000000000000000000000000000600052602260045260246000fd5b7f4e487b7100000000000000000000000000000000000000000000000000000000600052604160045260246000fd5b6000601f19601f8301169050919050565b614502816142ca565b811461450d57600080fd5b50565b614519816142dc565b811461452457600080fd5b50565b614530816142e8565b811461453b57600080fd5b50565b61454781614334565b811461455257600080fd5b5056fe4142434445464748494a4b4c4d4e4f505152535455565758595a6162636465666768696a6b6c6d6e6f707172737475767778797a303132333435363738392b2f41206e65772053636f7270794e46543a20257320686173206265656e206d696e74656420746f202573a264697066735822122052d246b5672afc52009c2b99ace7953520cc0a80f8658a99ec373024880d7eb864736f6c63430008000033",
  "linkReferences": {},
  "deployedLinkReferences": {}
}