{
  "_format": "hh-sol-artifact-1",
  "contractName": "ScorpyNFT",
  "sourceName": "contracts/ScorpyNFT.sol",
  "abi": [
    {
      "inputs": [],
      "stateMutability": "nonpayable",
      "type": "constructor"
    },
    {
      "anonymous": false,
      "inputs": [
        {
          "indexed": true,
          "internalType": "address",
          "name": "owner",
          "type": "address"
        },
        {
          "indexed": true,
          "internalType": "address",
          "name": "approved",
          "type": "address"
        },
        {
          "indexed": true,
          "internalType": "uint256",
          "name": "tokenId",
          "type": "uint256"
        }
      ],
      "name": "Approval",
      "type": "event"
    },
    {
      "anonymous": false,
      "inputs": [
        {
          "indexed": true,
          "internalType": "address",
          "name": "owner",
          "type": "address"
        },
        {
          "indexed": true,
          "internalType": "address",
          "name": "operator",
          "type": "address"
        },
        {
          "indexed": false,
          "internalType": "bool",
          "name": "approved",
          "type": "bool"
        }
      ],
      "name": "ApprovalForAll",
      "type": "event"
    },
    {
      "anonymous": false,
      "inputs": [
        {
          "indexed": false,
          "internalType": "address",
          "name": "sender",
          "type": "address"
        },
        {
          "indexed": false,
          "internalType": "uint256",
          "name": "tokenId",
          "type": "uint256"
        }
      ],
      "name": "NewNFTMinted",
      "type": "event"
    },
    {
      "anonymous": false,
      "inputs": [
        {
          "indexed": true,
          "internalType": "address",
          "name": "from",
          "type": "address"
        },
        {
          "indexed": true,
          "internalType": "address",
          "name": "to",
          "type": "address"
        },
        {
          "indexed": true,
          "internalType": "uint256",
          "name": "tokenId",
          "type": "uint256"
        }
      ],
      "name": "Transfer",
      "type": "event"
    },
    {
      "inputs": [
        {
          "internalType": "address",
          "name": "to",
          "type": "address"
        },
        {
          "internalType": "uint256",
          "name": "tokenId",
          "type": "uint256"
        }
      ],
      "name": "approve",
      "outputs": [],
      "stateMutability": "nonpayable",
      "type": "function"
    },
    {
      "inputs": [
        {
          "internalType": "address",
          "name": "owner",
          "type": "address"
        }
      ],
      "name": "balanceOf",
      "outputs": [
        {
          "internalType": "uint256",
          "name": "",
          "type": "uint256"
        }
      ],
      "stateMutability": "view",
      "type": "function"
    },
    {
      "inputs": [
        {
          "internalType": "uint256",
          "name": "tokenId",
          "type": "uint256"
        }
      ],
      "name": "getApproved",
      "outputs": [
        {
          "internalType": "address",
          "name": "",
          "type": "address"
        }
      ],
      "stateMutability": "view",
      "type": "function"
    },
    {
      "inputs": [
        {
          "internalType": "address",
          "name": "owner",
          "type": "address"
        },
        {
          "internalType": "address",
          "name": "operator",
          "type": "address"
        }
      ],
      "name": "isApprovedForAll",
      "outputs": [
        {
          "internalType": "bool",
          "name": "",
          "type": "bool"
        }
      ],
      "stateMutability": "view",
      "type": "function"
    },
    {
      "inputs": [],
      "name": "makeNFT",
      "outputs": [],
      "stateMutability": "nonpayable",
      "type": "function"
    },
    {
      "inputs": [],
      "name": "name",
      "outputs": [
        {
          "internalType": "string",
          "name": "",
          "type": "string"
        }
      ],
      "stateMutability": "view",
      "type": "function"
    },
    {
      "inputs": [
        {
          "internalType": "uint256",
          "name": "tokenId",
          "type": "uint256"
        }
      ],
      "name": "ownerOf",
      "outputs": [
        {
          "internalType": "address",
          "name": "",
          "type": "address"
        }
      ],
      "stateMutability": "view",
      "type": "function"
    },
    {
      "inputs": [
        {
          "internalType": "uint256",
          "name": "tokenId",
          "type": "uint256"
        }
      ],
      "name": "pickRandomFirstWord",
      "outputs": [
        {
          "internalType": "string",
          "name": "",
          "type": "string"
        }
      ],
      "stateMutability": "view",
      "type": "function"
    },
    {
      "inputs": [
        {
          "internalType": "uint256",
          "name": "tokenId",
          "type": "uint256"
        }
      ],
      "name": "pickRandomSecondWord",
      "outputs": [
        {
          "internalType": "string",
          "name": "",
          "type": "string"
        }
      ],
      "stateMutability": "view",
      "type": "function"
    },
    {
      "inputs": [
        {
          "internalType": "uint256",
          "name": "tokenId",
          "type": "uint256"
        }
      ],
      "name": "pickRandomThirdWord",
      "outputs": [
        {
          "internalType": "string",
          "name": "",
          "type": "string"
        }
      ],
      "stateMutability": "view",
      "type": "function"
    },
    {
      "inputs": [
        {
          "internalType": "address",
          "name": "from",
          "type": "address"
        },
        {
          "internalType": "address",
          "name": "to",
          "type": "address"
        },
        {
          "internalType": "uint256",
          "name": "tokenId",
          "type": "uint256"
        }
      ],
      "name": "safeTransferFrom",
      "outputs": [],
      "stateMutability": "nonpayable",
      "type": "function"
    },
    {
      "inputs": [
        {
          "internalType": "address",
          "name": "from",
          "type": "address"
        },
        {
          "internalType": "address",
          "name": "to",
          "type": "address"
        },
        {
          "internalType": "uint256",
          "name": "tokenId",
          "type": "uint256"
        },
        {
          "internalType": "bytes",
          "name": "_data",
          "type": "bytes"
        }
      ],
      "name": "safeTransferFrom",
      "outputs": [],
      "stateMutability": "nonpayable",
      "type": "function"
    },
    {
      "inputs": [
        {
          "internalType": "address",
          "name": "operator",
          "type": "address"
        },
        {
          "internalType": "bool",
          "name": "approved",
          "type": "bool"
        }
      ],
      "name": "setApprovalForAll",
      "outputs": [],
      "stateMutability": "nonpayable",
      "type": "function"
    },
    {
      "inputs": [
        {
          "internalType": "bytes4",
          "name": "interfaceId",
          "type": "bytes4"
        }
      ],
      "name": "supportsInterface",
      "outputs": [
        {
          "internalType": "bool",
          "name": "",
          "type": "bool"
        }
      ],
      "stateMutability": "view",
      "type": "function"
    },
    {
      "inputs": [],
      "name": "symbol",
      "outputs": [
        {
          "internalType": "string",
          "name": "",
          "type": "string"
        }
      ],
      "stateMutability": "view",
      "type": "function"
    },
    {
      "inputs": [
        {
          "internalType": "uint256",
          "name": "tokenId",
          "type": "uint256"
        }
      ],
      "name": "tokenURI",
      "outputs": [
        {
          "internalType": "string",
          "name": "",
          "type": "string"
        }
      ],
      "stateMutability": "view",
      "type": "function"
    },
    {
      "inputs": [
        {
          "internalType": "address",
          "name": "from",
          "type": "address"
        },
        {
          "internalType": "address",
          "name": "to",
          "type": "address"
        },
        {
          "internalType": "uint256",
          "name": "tokenId",
          "type": "uint256"
        }
      ],
      "name": "transferFrom",
      "outputs": [],
      "stateMutability": "nonpayable",
      "type": "function"
    }
  ],
  "bytecode": "0x6080604052604051806108e001604052806108a88152602001620047e86108a89139600890805190602001906200003892919062000cba565b50604051806101e001604052806040518060400160405280600881526020017f536c696768746c7900000000000000000000000000000000000000000000000081525081526020016040518060400160405280600781526020017f546f74616c6c790000000000000000000000000000000000000000000000000081525081526020016040518060400160405280600581526020017f527573747900000000000000000000000000000000000000000000000000000081525081526020016040518060400160405280600881526020017f536c696768746c7900000000000000000000000000000000000000000000000081525081526020016040518060400160405280600481526020017f566572790000000000000000000000000000000000000000000000000000000081525081526020016040518060400160405280600781526020017f546f74616c6c790000000000000000000000000000000000000000000000000081525081526020016040518060400160405280600481526020017f4d6567610000000000000000000000000000000000000000000000000000000081525081526020016040518060400160405280600581526020017f527573747900000000000000000000000000000000000000000000000000000081525081526020016040518060400160405280600881526020017f536c696768746c7900000000000000000000000000000000000000000000000081525081526020016040518060400160405280600481526020017f566572790000000000000000000000000000000000000000000000000000000081525081526020016040518060400160405280600581526020017f527573747900000000000000000000000000000000000000000000000000000081525081526020016040518060400160405280600581526020017f527573747900000000000000000000000000000000000000000000000000000081525081526020016040518060400160405280600581526020017f527573747900000000000000000000000000000000000000000000000000000081525081526020016040518060400160405280600581526020017f527573747900000000000000000000000000000000000000000000000000000081525081526020016040518060400160405280600581526020017f5275737479000000000000000000000000000000000000000000000000000000815250815250600990600f620003ca92919062000d4b565b50604051806101e001604052806040518060400160405280600681526020017f4e6f726d616c000000000000000000000000000000000000000000000000000081525081526020016040518060400160405280600681526020017f4e6f726d616c000000000000000000000000000000000000000000000000000081525081526020016040518060400160405280600681526020017f4e6f726d616c000000000000000000000000000000000000000000000000000081525081526020016040518060400160405280600681526020017f4e6f726d616c000000000000000000000000000000000000000000000000000081525081526020016040518060400160405280600681526020017f4e6f726d616c000000000000000000000000000000000000000000000000000081525081526020016040518060400160405280600481526020017f526172650000000000000000000000000000000000000000000000000000000081525081526020016040518060400160405280600481526020017f457069630000000000000000000000000000000000000000000000000000000081525081526020016040518060400160405280600481526020017f457069630000000000000000000000000000000000000000000000000000000081525081526020016040518060400160405280600681526020017f4e6f726d616c000000000000000000000000000000000000000000000000000081525081526020016040518060400160405280600681526020017f4e6f726d616c000000000000000000000000000000000000000000000000000081525081526020016040518060400160405280600481526020017f4e6963650000000000000000000000000000000000000000000000000000000081525081526020016040518060400160405280600481526020017f4e6963650000000000000000000000000000000000000000000000000000000081525081526020016040518060400160405280600481526020017f4e6963650000000000000000000000000000000000000000000000000000000081525081526020016040518060400160405280600481526020017f4e6963650000000000000000000000000000000000000000000000000000000081525081526020016040518060400160405280600681526020017f4e6f726d616c0000000000000000000000000000000000000000000000000000815250815250600a90600f6200075c92919062000d4b565b50604051806101e001604052806040518060400160405280600681526020017f53636f727079000000000000000000000000000000000000000000000000000081525081526020016040518060400160405280600681526020017f53636f727079000000000000000000000000000000000000000000000000000081525081526020016040518060400160405280600681526020017f53636f727079000000000000000000000000000000000000000000000000000081525081526020016040518060400160405280600681526020017f53636f727079000000000000000000000000000000000000000000000000000081525081526020016040518060400160405280600681526020017f53636f727079000000000000000000000000000000000000000000000000000081525081526020016040518060400160405280600681526020017f53636f727079000000000000000000000000000000000000000000000000000081525081526020016040518060400160405280600681526020017f53636f727079000000000000000000000000000000000000000000000000000081525081526020016040518060400160405280600681526020017f53636f727079000000000000000000000000000000000000000000000000000081525081526020016040518060400160405280600881526020017f53636f7270696f6e00000000000000000000000000000000000000000000000081525081526020016040518060400160405280600881526020017f53636f7270696f6e00000000000000000000000000000000000000000000000081525081526020016040518060400160405280600881526020017f53636f7270696f6e00000000000000000000000000000000000000000000000081525081526020016040518060400160405280600881526020017f53636f7270696f6e00000000000000000000000000000000000000000000000081525081526020016040518060400160405280600581526020017f534b696e6700000000000000000000000000000000000000000000000000000081525081526020016040518060400160405280600581526020017f534b696e6700000000000000000000000000000000000000000000000000000081525081526020016040518060400160405280600481526020017f53474f4400000000000000000000000000000000000000000000000000000000815250815250600b90600f62000aee92919062000d4b565b5034801562000afc57600080fd5b506040518060400160405280600981526020017f53636f7270794e465400000000000000000000000000000000000000000000008152506040518060400160405280600581526020017f5354494e47000000000000000000000000000000000000000000000000000000815250816000908051906020019062000b8192919062000cba565b50806001908051906020019062000b9a92919062000cba565b50505062000be86040518060400160405280602081526020017f48697373732e2e2e2048697373732e2e2e20496d6d61205374696e6720796f7581525062000bee60201b620012291760201c565b62000f6c565b62000c8e8160405160240162000c05919062000e80565b6040516020818303038152906040527f41304fac000000000000000000000000000000000000000000000000000000007bffffffffffffffffffffffffffffffffffffffffffffffffffffffff19166020820180517bffffffffffffffffffffffffffffffffffffffffffffffffffffffff838183161783525050505062000c9160201b60201c565b50565b60008151905060006a636f6e736f6c652e6c6f679050602083016000808483855afa5050505050565b82805462000cc89062000ef6565b90600052602060002090601f01602090048101928262000cec576000855562000d38565b82601f1062000d0757805160ff191683800117855562000d38565b8280016001018555821562000d38579182015b8281111562000d3757825182559160200191906001019062000d1a565b5b50905062000d47919062000db2565b5090565b82805482825590600052602060002090810192821562000d9f579160200282015b8281111562000d9e57825182908051906020019062000d8d92919062000cba565b509160200191906001019062000d6c565b5b50905062000dae919062000dd1565b5090565b5b8082111562000dcd57600081600090555060010162000db3565b5090565b5b8082111562000df5576000818162000deb919062000df9565b5060010162000dd2565b5090565b50805462000e079062000ef6565b6000825580601f1062000e1b575062000e3c565b601f01602090049060005260206000209081019062000e3b919062000db2565b5b50565b600062000e4c8262000ea4565b62000e58818562000eaf565b935062000e6a81856020860162000ec0565b62000e758162000f5b565b840191505092915050565b6000602082019050818103600083015262000e9c818462000e3f565b905092915050565b600081519050919050565b600082825260208201905092915050565b60005b8381101562000ee057808201518184015260208101905062000ec3565b8381111562000ef0576000848401525b50505050565b6000600282049050600182168062000f0f57607f821691505b6020821081141562000f265762000f2562000f2c565b5b50919050565b7f4e487b7100000000000000000000000000000000000000000000000000000000600052602260045260246000fd5b6000601f19601f8301169050919050565b61386c8062000f7c6000396000f3fe608060405234801561001057600080fd5b506004361061010b5760003560e01c806370a08231116100a2578063b187301f11610071578063b187301f146102b6578063b88d4fde146102e6578063c575757a14610302578063c87b56dd14610332578063e985e9c5146103625761010b565b806370a082311461024257806395d89b4114610272578063a22cb46514610290578063b036b4bd146102ac5761010b565b806323b872dd116100de57806323b872dd146101aa5780632de38d68146101c657806342842e0e146101f65780636352211e146102125761010b565b806301ffc9a71461011057806306fdde0314610140578063081812fc1461015e578063095ea7b31461018e575b600080fd5b61012a600480360381019061012591906124bc565b610392565b60405161013791906130de565b60405180910390f35b610148610474565b60405161015591906130f9565b60405180910390f35b6101786004803603810190610173919061250e565b610506565b604051610185919061304e565b60405180910390f35b6101a860048036038101906101a39190612480565b61058b565b005b6101c460048036038101906101bf919061237a565b6106a3565b005b6101e060048036038101906101db919061250e565b610703565b6040516101ed91906130f9565b60405180910390f35b610210600480360381019061020b919061237a565b610821565b005b61022c6004803603810190610227919061250e565b610841565b604051610239919061304e565b60405180910390f35b61025c60048036038101906102579190612315565b6108f3565b6040516102699190613359565b60405180910390f35b61027a6109ab565b60405161028791906130f9565b60405180910390f35b6102aa60048036038101906102a59190612444565b610a3d565b005b6102b4610bbe565b005b6102d060048036038101906102cb919061250e565b610da5565b6040516102dd91906130f9565b60405180910390f35b61030060048036038101906102fb91906123c9565b610ec3565b005b61031c6004803603810190610317919061250e565b610f25565b60405161032991906130f9565b60405180910390f35b61034c6004803603810190610347919061250e565b611043565b60405161035991906130f9565b60405180910390f35b61037c6004803603810190610377919061233e565b611195565b60405161038991906130de565b60405180910390f35b60007f80ac58cd000000000000000000000000000000000000000000000000000000007bffffffffffffffffffffffffffffffffffffffffffffffffffffffff1916827bffffffffffffffffffffffffffffffffffffffffffffffffffffffff1916148061045d57507f5b5e139f000000000000000000000000000000000000000000000000000000007bffffffffffffffffffffffffffffffffffffffffffffffffffffffff1916827bffffffffffffffffffffffffffffffffffffffffffffffffffffffff1916145b8061046d575061046c826112c2565b5b9050919050565b606060008054610483906135f8565b80601f01602080910402602001604051908101604052809291908181526020018280546104af906135f8565b80156104fc5780601f106104d1576101008083540402835291602001916104fc565b820191906000526020600020905b8154815290600101906020018083116104df57829003601f168201915b5050505050905090565b60006105118261132c565b610550576040517f08c379a0000000000000000000000000000000000000000000000000000000008152600401610547906132b9565b60405180910390fd5b6004600083815260200190815260200160002060009054906101000a900473ffffffffffffffffffffffffffffffffffffffff169050919050565b600061059682610841565b90508073ffffffffffffffffffffffffffffffffffffffff168373ffffffffffffffffffffffffffffffffffffffff161415610607576040517f08c379a00000000000000000000000000000000000000000000000000000000081526004016105fe90613319565b60405180910390fd5b8073ffffffffffffffffffffffffffffffffffffffff16610626611398565b73ffffffffffffffffffffffffffffffffffffffff16148061065557506106548161064f611398565b611195565b5b610694576040517f08c379a000000000000000000000000000000000000000000000000000000000815260040161068b906131f9565b60405180910390fd5b61069e83836113a0565b505050565b6106b46106ae611398565b82611459565b6106f3576040517f08c379a00000000000000000000000000000000000000000000000000000000081526004016106ea90613339565b60405180910390fd5b6106fe838383611537565b505050565b6060600061073761071384611793565b604051602001610723919061300a565b604051602081830303815290604052611940565b90506009805490508161074a9190613673565b905060098181548110610786577f4e487b7100000000000000000000000000000000000000000000000000000000600052603260045260246000fd5b90600052602060002001805461079b906135f8565b80601f01602080910402602001604051908101604052809291908181526020018280546107c7906135f8565b80156108145780601f106107e957610100808354040283529160200191610814565b820191906000526020600020905b8154815290600101906020018083116107f757829003601f168201915b5050505050915050919050565b61083c83838360405180602001604052806000815250610ec3565b505050565b6000806002600084815260200190815260200160002060009054906101000a900473ffffffffffffffffffffffffffffffffffffffff169050600073ffffffffffffffffffffffffffffffffffffffff168173ffffffffffffffffffffffffffffffffffffffff1614156108ea576040517f08c379a00000000000000000000000000000000000000000000000000000000081526004016108e190613239565b60405180910390fd5b80915050919050565b60008073ffffffffffffffffffffffffffffffffffffffff168273ffffffffffffffffffffffffffffffffffffffff161415610964576040517f08c379a000000000000000000000000000000000000000000000000000000000815260040161095b90613219565b60405180910390fd5b600360008373ffffffffffffffffffffffffffffffffffffffff1673ffffffffffffffffffffffffffffffffffffffff168152602001908152602001600020549050919050565b6060600180546109ba906135f8565b80601f01602080910402602001604051908101604052809291908181526020018280546109e6906135f8565b8015610a335780601f10610a0857610100808354040283529160200191610a33565b820191906000526020600020905b815481529060010190602001808311610a1657829003601f168201915b5050505050905090565b610a45611398565b73ffffffffffffffffffffffffffffffffffffffff168273ffffffffffffffffffffffffffffffffffffffff161415610ab3576040517f08c379a0000000000000000000000000000000000000000000000000000000008152600401610aaa906131b9565b60405180910390fd5b8060056000610ac0611398565b73ffffffffffffffffffffffffffffffffffffffff1673ffffffffffffffffffffffffffffffffffffffff16815260200190815260200160002060008473ffffffffffffffffffffffffffffffffffffffff1673ffffffffffffffffffffffffffffffffffffffff16815260200190815260200160002060006101000a81548160ff0219169083151502179055508173ffffffffffffffffffffffffffffffffffffffff16610b6d611398565b73ffffffffffffffffffffffffffffffffffffffff167f17307eab39ab6107e8899845ad3d59bd9653f200f220920489ca2b5937696c3183604051610bb291906130de565b60405180910390a35050565b6000610bca6007611973565b90506000610bd782610703565b90506000610be483610da5565b90506000610bf184610f25565b90506000838383604051602001610c0a93929190612f21565b60405160208183030381529060405290506000600882604051602001610c31929190612f52565b60405160208183030381529060405290506000610c7683610c5184611981565b604051602001610c62929190612fc5565b604051602081830303815290604052611981565b9050600081604051602001610c8b919061302c565b6040516020818303038152906040529050610cda6040518060400160405280601581526020017f0a2d2d2d2d2d2d2d2d2d2d2d2d2d2d2d2d2d2d2d2d0000000000000000000000815250611229565b610ce381611229565b610d216040518060400160405280601581526020017f2d2d2d2d2d2d2d2d2d2d2d2d2d2d2d2d2d2d2d2d0a0000000000000000000000815250611229565b610d2b3389611b3f565b610d358882611b5d565b610d5860405180606001604052806029815260200161380e602991398933611bd1565b610d626007611c70565b7f1c05098ed1ff38e6238d2b1b04b2c7977d4c94ce651bda6473f9dba8dbf01da03389604051610d939291906130b5565b60405180910390a15050505050505050565b60606000610dd9610db584611793565b604051602001610dc59190612fa3565b604051602081830303815290604052611940565b9050600a8054905081610dec9190613673565b9050600a8181548110610e28577f4e487b7100000000000000000000000000000000000000000000000000000000600052603260045260246000fd5b906000526020600020018054610e3d906135f8565b80601f0160208091040260200160405190810160405280929190818152602001828054610e69906135f8565b8015610eb65780601f10610e8b57610100808354040283529160200191610eb6565b820191906000526020600020905b815481529060010190602001808311610e9957829003601f168201915b5050505050915050919050565b610ed4610ece611398565b83611459565b610f13576040517f08c379a0000000000000000000000000000000000000000000000000000000008152600401610f0a90613339565b60405180910390fd5b610f1f84848484611c86565b50505050565b60606000610f59610f3584611793565b604051602001610f459190612f81565b604051602081830303815290604052611940565b9050600b8054905081610f6c9190613673565b9050600b8181548110610fa8577f4e487b7100000000000000000000000000000000000000000000000000000000600052603260045260246000fd5b906000526020600020018054610fbd906135f8565b80601f0160208091040260200160405190810160405280929190818152602001828054610fe9906135f8565b80156110365780601f1061100b57610100808354040283529160200191611036565b820191906000526020600020905b81548152906001019060200180831161101957829003601f168201915b5050505050915050919050565b606061104e8261132c565b61108d576040517f08c379a000000000000000000000000000000000000000000000000000000000815260040161108490613299565b60405180910390fd5b60006006600084815260200190815260200160002080546110ad906135f8565b80601f01602080910402602001604051908101604052809291908181526020018280546110d9906135f8565b80156111265780601f106110fb57610100808354040283529160200191611126565b820191906000526020600020905b81548152906001019060200180831161110957829003601f168201915b505050505090506000611137611ce2565b905060008151141561114d578192505050611190565b60008251111561118257808260405160200161116a929190612efd565b60405160208183030381529060405292505050611190565b61118b84611cf9565b925050505b919050565b6000600560008473ffffffffffffffffffffffffffffffffffffffff1673ffffffffffffffffffffffffffffffffffffffff16815260200190815260200160002060008373ffffffffffffffffffffffffffffffffffffffff1673ffffffffffffffffffffffffffffffffffffffff16815260200190815260200160002060009054906101000a900460ff16905092915050565b6112bf8160405160240161123d91906130f9565b6040516020818303038152906040527f41304fac000000000000000000000000000000000000000000000000000000007bffffffffffffffffffffffffffffffffffffffffffffffffffffffff19166020820180517bffffffffffffffffffffffffffffffffffffffffffffffffffffffff8381831617835250505050611da0565b50565b60007f01ffc9a7000000000000000000000000000000000000000000000000000000007bffffffffffffffffffffffffffffffffffffffffffffffffffffffff1916827bffffffffffffffffffffffffffffffffffffffffffffffffffffffff1916149050919050565b60008073ffffffffffffffffffffffffffffffffffffffff166002600084815260200190815260200160002060009054906101000a900473ffffffffffffffffffffffffffffffffffffffff1673ffffffffffffffffffffffffffffffffffffffff1614159050919050565b600033905090565b816004600083815260200190815260200160002060006101000a81548173ffffffffffffffffffffffffffffffffffffffff021916908373ffffffffffffffffffffffffffffffffffffffff160217905550808273ffffffffffffffffffffffffffffffffffffffff1661141383610841565b73ffffffffffffffffffffffffffffffffffffffff167f8c5be1e5ebec7d5bd14f71427d1e84f3dd0314c0f7b2291e5b200ac8c7c3b92560405160405180910390a45050565b60006114648261132c565b6114a3576040517f08c379a000000000000000000000000000000000000000000000000000000000815260040161149a906131d9565b60405180910390fd5b60006114ae83610841565b90508073ffffffffffffffffffffffffffffffffffffffff168473ffffffffffffffffffffffffffffffffffffffff16148061151d57508373ffffffffffffffffffffffffffffffffffffffff1661150584610506565b73ffffffffffffffffffffffffffffffffffffffff16145b8061152e575061152d8185611195565b5b91505092915050565b8273ffffffffffffffffffffffffffffffffffffffff1661155782610841565b73ffffffffffffffffffffffffffffffffffffffff16146115ad576040517f08c379a00000000000000000000000000000000000000000000000000000000081526004016115a4906132d9565b60405180910390fd5b600073ffffffffffffffffffffffffffffffffffffffff168273ffffffffffffffffffffffffffffffffffffffff16141561161d576040517f08c379a000000000000000000000000000000000000000000000000000000000815260040161161490613199565b60405180910390fd5b611628838383611dc9565b6116336000826113a0565b6001600360008573ffffffffffffffffffffffffffffffffffffffff1673ffffffffffffffffffffffffffffffffffffffff1681526020019081526020016000206000828254611683919061350e565b925050819055506001600360008473ffffffffffffffffffffffffffffffffffffffff1673ffffffffffffffffffffffffffffffffffffffff16815260200190815260200160002060008282546116da919061342d565b92505081905550816002600083815260200190815260200160002060006101000a81548173ffffffffffffffffffffffffffffffffffffffff021916908373ffffffffffffffffffffffffffffffffffffffff160217905550808273ffffffffffffffffffffffffffffffffffffffff168473ffffffffffffffffffffffffffffffffffffffff167fddf252ad1be2c89b69c2b068fc378daa952ba7f163c4a11628f55a4df523b3ef60405160405180910390a4505050565b606060008214156117db576040518060400160405280600181526020017f3000000000000000000000000000000000000000000000000000000000000000815250905061193b565b600082905060005b6000821461180d5780806117f69061362a565b915050600a826118069190613483565b91506117e3565b60008167ffffffffffffffff81111561184f577f4e487b7100000000000000000000000000000000000000000000000000000000600052604160045260246000fd5b6040519080825280601f01601f1916602001820160405280156118815781602001600182028036833780820191505090505b5090505b600085146119345760018261189a919061350e565b9150600a856118a99190613673565b60306118b5919061342d565b60f81b8183815181106118f1577f4e487b7100000000000000000000000000000000000000000000000000000000600052603260045260246000fd5b60200101907effffffffffffffffffffffffffffffffffffffffffffffffffffffffffffff1916908160001a905350600a8561192d9190613483565b9450611885565b8093505050505b919050565b6000816040516020016119539190612ee6565b6040516020818303038152906040528051906020012060001c9050919050565b600081600001549050919050565b606060008251905060008114156119aa5760405180602001604052806000815250915050611b3a565b600060036002836119bb919061342d565b6119c59190613483565b60046119d191906134b4565b905060006020826119e2919061342d565b67ffffffffffffffff811115611a21577f4e487b7100000000000000000000000000000000000000000000000000000000600052604160045260246000fd5b6040519080825280601f01601f191660200182016040528015611a535781602001600182028036833780820191505090505b50905060006040518060600160405280604081526020016137ce604091399050600181016020830160005b86811015611af75760038101905062ffffff818a015116603f8160121c168401518060081b905060ff603f83600c1c1686015116810190508060081b905060ff603f8360061c1686015116810190508060081b905060ff603f831686015116810190508060e01b90508084526004840193505050611a7e565b506003860660018114611b115760028114611b2157611b2c565b613d3d60f01b6002830352611b2c565b603d60f81b60018303525b508484525050819450505050505b919050565b611b59828260405180602001604052806000815250611dce565b5050565b611b668261132c565b611ba5576040517f08c379a0000000000000000000000000000000000000000000000000000000008152600401611b9c90613259565b60405180910390fd5b80600660008481526020019081526020016000209080519060200190611bcc9291906121a1565b505050565b611c6b838383604051602401611be99392919061311b565b6040516020818303038152906040527fe3849f79000000000000000000000000000000000000000000000000000000007bffffffffffffffffffffffffffffffffffffffffffffffffffffffff19166020820180517bffffffffffffffffffffffffffffffffffffffffffffffffffffffff8381831617835250505050611da0565b505050565b6001816000016000828254019250508190555050565b611c91848484611537565b611c9d84848484611e29565b611cdc576040517f08c379a0000000000000000000000000000000000000000000000000000000008152600401611cd390613159565b60405180910390fd5b50505050565b606060405180602001604052806000815250905090565b6060611d048261132c565b611d43576040517f08c379a0000000000000000000000000000000000000000000000000000000008152600401611d3a906132f9565b60405180910390fd5b6000611d4d611ce2565b90506000815111611d6d5760405180602001604052806000815250611d98565b80611d7784611793565b604051602001611d88929190612efd565b6040516020818303038152906040525b915050919050565b60008151905060006a636f6e736f6c652e6c6f679050602083016000808483855afa5050505050565b505050565b611dd88383611fc0565b611de56000848484611e29565b611e24576040517f08c379a0000000000000000000000000000000000000000000000000000000008152600401611e1b90613159565b60405180910390fd5b505050565b6000611e4a8473ffffffffffffffffffffffffffffffffffffffff1661218e565b15611fb3578373ffffffffffffffffffffffffffffffffffffffff1663150b7a02611e73611398565b8786866040518563ffffffff1660e01b8152600401611e959493929190613069565b602060405180830381600087803b158015611eaf57600080fd5b505af1925050508015611ee057506040513d601f19601f82011682018060405250810190611edd91906124e5565b60015b611f63573d8060008114611f10576040519150601f19603f3d011682016040523d82523d6000602084013e611f15565b606091505b50600081511415611f5b576040517f08c379a0000000000000000000000000000000000000000000000000000000008152600401611f5290613159565b60405180910390fd5b805181602001fd5b63150b7a0260e01b7bffffffffffffffffffffffffffffffffffffffffffffffffffffffff1916817bffffffffffffffffffffffffffffffffffffffffffffffffffffffff191614915050611fb8565b600190505b949350505050565b600073ffffffffffffffffffffffffffffffffffffffff168273ffffffffffffffffffffffffffffffffffffffff161415612030576040517f08c379a000000000000000000000000000000000000000000000000000000000815260040161202790613279565b60405180910390fd5b6120398161132c565b15612079576040517f08c379a000000000000000000000000000000000000000000000000000000000815260040161207090613179565b60405180910390fd5b61208560008383611dc9565b6001600360008473ffffffffffffffffffffffffffffffffffffffff1673ffffffffffffffffffffffffffffffffffffffff16815260200190815260200160002060008282546120d5919061342d565b92505081905550816002600083815260200190815260200160002060006101000a81548173ffffffffffffffffffffffffffffffffffffffff021916908373ffffffffffffffffffffffffffffffffffffffff160217905550808273ffffffffffffffffffffffffffffffffffffffff16600073ffffffffffffffffffffffffffffffffffffffff167fddf252ad1be2c89b69c2b068fc378daa952ba7f163c4a11628f55a4df523b3ef60405160405180910390a45050565b600080823b905060008111915050919050565b8280546121ad906135f8565b90600052602060002090601f0160209004810192826121cf5760008555612216565b82601f106121e857805160ff1916838001178555612216565b82800160010185558215612216579182015b828111156122155782518255916020019190600101906121fa565b5b5090506122239190612227565b5090565b5b80821115612240576000816000905550600101612228565b5090565b6000612257612252846133a5565b613374565b90508281526020810184848401111561226f57600080fd5b61227a8482856135b6565b509392505050565b60008135905061229181613771565b92915050565b6000813590506122a681613788565b92915050565b6000813590506122bb8161379f565b92915050565b6000815190506122d08161379f565b92915050565b600082601f8301126122e757600080fd5b81356122f7848260208601612244565b91505092915050565b60008135905061230f816137b6565b92915050565b60006020828403121561232757600080fd5b600061233584828501612282565b91505092915050565b6000806040838503121561235157600080fd5b600061235f85828601612282565b925050602061237085828601612282565b9150509250929050565b60008060006060848603121561238f57600080fd5b600061239d86828701612282565b93505060206123ae86828701612282565b92505060406123bf86828701612300565b9150509250925092565b600080600080608085870312156123df57600080fd5b60006123ed87828801612282565b94505060206123fe87828801612282565b935050604061240f87828801612300565b925050606085013567ffffffffffffffff81111561242c57600080fd5b612438878288016122d6565b91505092959194509250565b6000806040838503121561245757600080fd5b600061246585828601612282565b925050602061247685828601612297565b9150509250929050565b6000806040838503121561249357600080fd5b60006124a185828601612282565b92505060206124b285828601612300565b9150509250929050565b6000602082840312156124ce57600080fd5b60006124dc848285016122ac565b91505092915050565b6000602082840312156124f757600080fd5b6000612505848285016122c1565b91505092915050565b60006020828403121561252057600080fd5b600061252e84828501612300565b91505092915050565b61254081613542565b82525050565b61254f81613554565b82525050565b6000612560826133ea565b61256a8185613400565b935061257a8185602086016135c5565b61258381613760565b840191505092915050565b6000612599826133f5565b6125a38185613411565b93506125b38185602086016135c5565b6125bc81613760565b840191505092915050565b60006125d2826133f5565b6125dc8185613422565b93506125ec8185602086016135c5565b80840191505092915050565b60008154612605816135f8565b61260f8186613422565b9450600182166000811461262a576001811461263b5761266e565b60ff1983168652818601935061266e565b612644856133d5565b60005b8381101561266657815481890152600182019150602081019050612647565b838801955050505b50505092915050565b6000612684603283613411565b91507f4552433732313a207472616e7366657220746f206e6f6e20455243373231526560008301527f63656976657220696d706c656d656e74657200000000000000000000000000006020830152604082019050919050565b60006126ea601c83613411565b91507f4552433732313a20746f6b656e20616c7265616479206d696e746564000000006000830152602082019050919050565b600061272a600a83613422565b91507f54484952445f574f5244000000000000000000000000000000000000000000006000830152600a82019050919050565b600061276a602483613411565b91507f4552433732313a207472616e7366657220746f20746865207a65726f2061646460008301527f72657373000000000000000000000000000000000000000000000000000000006020830152604082019050919050565b60006127d0601983613411565b91507f4552433732313a20617070726f766520746f2063616c6c6572000000000000006000830152602082019050919050565b6000612810600b83613422565b91507f5345434f4e445f574f52440000000000000000000000000000000000000000006000830152600b82019050919050565b6000612850602c83613411565b91507f4552433732313a206f70657261746f7220717565727920666f72206e6f6e657860008301527f697374656e7420746f6b656e00000000000000000000000000000000000000006020830152604082019050919050565b60006128b6600d83613422565b91507f3c2f746578743e3c2f7376673e000000000000000000000000000000000000006000830152600d82019050919050565b60006128f6603883613411565b91507f4552433732313a20617070726f76652063616c6c6572206973206e6f74206f7760008301527f6e6572206e6f7220617070726f76656420666f7220616c6c00000000000000006020830152604082019050919050565b600061295c602a83613411565b91507f4552433732313a2062616c616e636520717565727920666f7220746865207a6560008301527f726f2061646472657373000000000000000000000000000000000000000000006020830152604082019050919050565b60006129c2602983613411565b91507f4552433732313a206f776e657220717565727920666f72206e6f6e657869737460008301527f656e7420746f6b656e00000000000000000000000000000000000000000000006020830152604082019050919050565b6000612a28602e83613411565b91507f45524337323155524953746f726167653a2055524920736574206f66206e6f6e60008301527f6578697374656e7420746f6b656e0000000000000000000000000000000000006020830152604082019050919050565b6000612a8e600283613422565b91507f227d0000000000000000000000000000000000000000000000000000000000006000830152600282019050919050565b6000612ace602083613411565b91507f4552433732313a206d696e7420746f20746865207a65726f20616464726573736000830152602082019050919050565b6000612b0e603183613411565b91507f45524337323155524953746f726167653a2055524920717565727920666f722060008301527f6e6f6e6578697374656e7420746f6b656e0000000000000000000000000000006020830152604082019050919050565b6000612b74602c83613411565b91507f4552433732313a20617070726f76656420717565727920666f72206e6f6e657860008301527f697374656e7420746f6b656e00000000000000000000000000000000000000006020830152604082019050919050565b6000612bda602983613411565b91507f4552433732313a207472616e73666572206f6620746f6b656e2074686174206960008301527f73206e6f74206f776e00000000000000000000000000000000000000000000006020830152604082019050919050565b6000612c40606583613422565b91507f222c20226465736372697074696f6e223a2022416e2065787472656d656c792060008301527f61726520636f6c6c656374696f6e206f662053636f727079204e4654732e222c60208301527f2022696d616765223a2022646174613a696d6167652f7376672b786d6c3b626160408301527f736536342c0000000000000000000000000000000000000000000000000000006060830152606582019050919050565b6000612cf2602f83613411565b91507f4552433732314d657461646174613a2055524920717565727920666f72206e6f60008301527f6e6578697374656e7420746f6b656e00000000000000000000000000000000006020830152604082019050919050565b6000612d58600a83613422565b91507f7b226e616d65223a2022000000000000000000000000000000000000000000006000830152600a82019050919050565b6000612d98602183613411565b91507f4552433732313a20617070726f76616c20746f2063757272656e74206f776e6560008301527f72000000000000000000000000000000000000000000000000000000000000006020830152604082019050919050565b6000612dfe600a83613422565b91507f46495253545f574f5244000000000000000000000000000000000000000000006000830152600a82019050919050565b6000612e3e601d83613422565b91507f646174613a6170706c69636174696f6e2f6a736f6e3b6261736536342c0000006000830152601d82019050919050565b6000612e7e603183613411565b91507f4552433732313a207472616e736665722063616c6c6572206973206e6f74206f60008301527f776e6572206e6f7220617070726f7665640000000000000000000000000000006020830152604082019050919050565b612ee0816135ac565b82525050565b6000612ef282846125c7565b915081905092915050565b6000612f0982856125c7565b9150612f1582846125c7565b91508190509392505050565b6000612f2d82866125c7565b9150612f3982856125c7565b9150612f4582846125c7565b9150819050949350505050565b6000612f5e82856125f8565b9150612f6a82846125c7565b9150612f75826128a9565b91508190509392505050565b6000612f8c8261271d565b9150612f9882846125c7565b915081905092915050565b6000612fae82612803565b9150612fba82846125c7565b915081905092915050565b6000612fd082612d4b565b9150612fdc82856125c7565b9150612fe782612c33565b9150612ff382846125c7565b9150612ffe82612a81565b91508190509392505050565b600061301582612df1565b915061302182846125c7565b915081905092915050565b600061303782612e31565b915061304382846125c7565b915081905092915050565b60006020820190506130636000830184612537565b92915050565b600060808201905061307e6000830187612537565b61308b6020830186612537565b6130986040830185612ed7565b81810360608301526130aa8184612555565b905095945050505050565b60006040820190506130ca6000830185612537565b6130d76020830184612ed7565b9392505050565b60006020820190506130f36000830184612546565b92915050565b60006020820190508181036000830152613113818461258e565b905092915050565b60006060820190508181036000830152613135818661258e565b90506131446020830185612ed7565b6131516040830184612537565b949350505050565b6000602082019050818103600083015261317281612677565b9050919050565b60006020820190508181036000830152613192816126dd565b9050919050565b600060208201905081810360008301526131b28161275d565b9050919050565b600060208201905081810360008301526131d2816127c3565b9050919050565b600060208201905081810360008301526131f281612843565b9050919050565b60006020820190508181036000830152613212816128e9565b9050919050565b600060208201905081810360008301526132328161294f565b9050919050565b60006020820190508181036000830152613252816129b5565b9050919050565b6000602082019050818103600083015261327281612a1b565b9050919050565b6000602082019050818103600083015261329281612ac1565b9050919050565b600060208201905081810360008301526132b281612b01565b9050919050565b600060208201905081810360008301526132d281612b67565b9050919050565b600060208201905081810360008301526132f281612bcd565b9050919050565b6000602082019050818103600083015261331281612ce5565b9050919050565b6000602082019050818103600083015261333281612d8b565b9050919050565b6000602082019050818103600083015261335281612e71565b9050919050565b600060208201905061336e6000830184612ed7565b92915050565b6000604051905081810181811067ffffffffffffffff8211171561339b5761339a613731565b5b8060405250919050565b600067ffffffffffffffff8211156133c0576133bf613731565b5b601f19601f8301169050602081019050919050565b60008190508160005260206000209050919050565b600081519050919050565b600081519050919050565b600082825260208201905092915050565b600082825260208201905092915050565b600081905092915050565b6000613438826135ac565b9150613443836135ac565b9250827fffffffffffffffffffffffffffffffffffffffffffffffffffffffffffffffff03821115613478576134776136a4565b5b828201905092915050565b600061348e826135ac565b9150613499836135ac565b9250826134a9576134a86136d3565b5b828204905092915050565b60006134bf826135ac565b91506134ca836135ac565b9250817fffffffffffffffffffffffffffffffffffffffffffffffffffffffffffffffff0483118215151615613503576135026136a4565b5b828202905092915050565b6000613519826135ac565b9150613524836135ac565b925082821015613537576135366136a4565b5b828203905092915050565b600061354d8261358c565b9050919050565b60008115159050919050565b60007fffffffff0000000000000000000000000000000000000000000000000000000082169050919050565b600073ffffffffffffffffffffffffffffffffffffffff82169050919050565b6000819050919050565b82818337600083830152505050565b60005b838110156135e35780820151818401526020810190506135c8565b838111156135f2576000848401525b50505050565b6000600282049050600182168061361057607f821691505b6020821081141561362457613623613702565b5b50919050565b6000613635826135ac565b91507fffffffffffffffffffffffffffffffffffffffffffffffffffffffffffffffff821415613668576136676136a4565b5b600182019050919050565b600061367e826135ac565b9150613689836135ac565b925082613699576136986136d3565b5b828206905092915050565b7f4e487b7100000000000000000000000000000000000000000000000000000000600052601160045260246000fd5b7f4e487b7100000000000000000000000000000000000000000000000000000000600052601260045260246000fd5b7f4e487b7100000000000000000000000000000000000000000000000000000000600052602260045260246000fd5b7f4e487b7100000000000000000000000000000000000000000000000000000000600052604160045260246000fd5b6000601f19601f8301169050919050565b61377a81613542565b811461378557600080fd5b50565b61379181613554565b811461379c57600080fd5b50565b6137a881613560565b81146137b357600080fd5b50565b6137bf816135ac565b81146137ca57600080fd5b5056fe4142434445464748494a4b4c4d4e4f505152535455565758595a6162636465666768696a6b6c6d6e6f707172737475767778797a303132333435363738392b2f41206e65772053636f7270794e46543a20257320686173206265656e206d696e74656420746f202573a264697066735822122070d025902ff5749fec65d702b1fc1cfb702ccf768009dc6e76a3f7f514d56bce64736f6c634300080000333c3f786d6c2076657273696f6e3d27312e3027207374616e64616c6f6e653d276e6f273f3e203c21444f435459504520737667205055424c494320272d2f2f5733432f2f445444205356472032303031303930342f2f454e272027687474703a2f2f7777772e77332e6f72672f54522f323030312f5245432d5356472d32303031303930342f4454442f73766731302e647464273e203c7376672076657273696f6e3d27312e302720786d6c6e733d27687474703a2f2f7777772e77332e6f72672f323030302f737667272077696474683d273530302e303030303030707427206865696768743d273530302e3030303030307074272076696577426f783d2730203020323335302e30303030303020323335302e30303030303027207072657365727665417370656374526174696f3d27784d6964594d6964206d656574273e203c67207472616e73666f726d3d277472616e736c61746528302e3030303030302c323335302e30303030303029207363616c6528302e3130303030302c2d302e31303030303029272066696c6c3d272330303030303027207374726f6b653d276e6f6e65273e203c7061746820643d274d30203131373530206c30202d31313735302031313735302030203131373530203020302031313735302030203131373530202d31313735302030202d313137353020302030202d31313735307a206d32333432302030206c30202d3131363730202d333836352030202d33383635203020302036303420302036303420343138202d352063323239202d3220343835202d3820353637202d3133203833202d3420313532202d3620313533202d3520313020392032312031303539203232203139323520302031313635202d31372034383830202d32362035343938206c2d3620343432202d313638342030202d313638342030203020393230203020393230202d3533302030202d35333020302030202d313138352030202d31313835202d3134302030202d31343020302030202d3331302030202d333130202d38302030202d383020302030202d313139302030202d31313930202d3136302030202d31363020302030203131393020302031313930202d37352030202d37352030203020333130203020333039202d3133372033202d3133382033202d352031313835202d352031313835202d333730203620632d3230332033202d3338392037202d3431322038206c2d34332031203020333735203020333735203136302030203136302030203020343330203020343330202d3231352030202d3231352030203020313335203020313335202d3132352030202d3132352030203020313935203020313935202d3530302030202d35303020302030202d3238352030202d3238352033333020302033333020302030202d3132352030202d3132352032393020302032393020302030202d3334352030202d333435202d3632352030202d36323520302030202d3338302030202d3338302035363520302035363520302030202d323437206330202d313337202d33202d353535202d37202d393330206c2d36202d363833202d313730392030202d3137303820302030202d333933362030202d333933372036303520382036303520372030202d353635206330202d333130202d33202d353739202d36202d353936206c2d36202d3331202d333930392030202d33393039203020302031313637302030203131363730203131363730203020313136373020302030202d31313637307a272f3e203c7061746820643d274d39373830203230353435206c30202d323035202d3233302030202d3233302030202d32202d313837202d33202d313838202d323832202d33202d323833202d322030202d3330352030202d333035202d3238302030202d32383020302030202d3536302030202d353630202d3137302030202d31373020302030202d3234302030202d323339202d313337202d33202d313338202d33202d33202d31313732202d32202d313137332031333520302031333520302030202d3235302030202d3235302031373520302031373520302030202d3432352030202d3432352033303020302033303020302030202d3139302030202d313930203131352030203131352030203020313935203020313935203430203020343020302030203233302030203233302033393020302033393020302030202d3233302030202d323330203532302030203532302030203020343535203020343535202d3935302030202d3935302030203020313030203020313030203639332032203639322033203320313738203220313737202d3639352030202d363935203020302031303020302031303020313730302030203137303020302030202d3334352030202d3334352033313020302033313020302030202d3538352030202d3538352032323020302032323020302032202d353032206332202d3237372034202d3430372035202d323930206c33203231322032323020302032323020302030203139302030203139302031383520302031383520302030203139302030203139302033303820322033303720332033203532332032203532322032333520302032333520302030203135302030203135302031323020302031323020302030203131373520302031313735202d3132302030202d3132302030203020323430203020323430202d3233352030202d3233352030203020353630203020353630202d3331302030202d3331302030202d3220333033202d3320333032202d3136372033202d3136382032203020313930203020313930202d3237352030202d3237352030203020323035203020323035202d313831352030202d3138313520302030202d3230357a272f3e203c2f673e203c7465787420783d273530252720793d273530252720666f6e742d73697a653d273130656d2720636c6173733d27626173652720646f6d696e616e742d626173656c696e653d276d6964646c652720746578742d616e63686f723d276d6964646c65272066696c6c3d27726564273e",
  "linkReferences": {},
  "deployedLinkReferences": {}
}